{
  "contracts/CampusShield.sol": {
    "CampusShield": {
      "abi": [
        {
          "inputs": [
            {
              "internalType": "address",
              "name": "_usdcAddress",
              "type": "address"
            }
          ],
          "stateMutability": "nonpayable",
          "type": "constructor"
        },
        {
          "inputs": [],
          "name": "ReentrancyGuardReentrantCall",
          "type": "error"
        },
        {
          "inputs": [
            {
              "internalType": "address",
              "name": "token",
              "type": "address"
            }
          ],
          "name": "SafeERC20FailedOperation",
          "type": "error"
        },
        {
          "anonymous": false,
          "inputs": [
            {
              "indexed": true,
              "internalType": "uint256",
              "name": "requestId",
              "type": "uint256"
            },
            {
              "indexed": true,
              "internalType": "address",
              "name": "student",
              "type": "address"
            },
            {
              "indexed": false,
              "internalType": "uint256",
              "name": "amount",
              "type": "uint256"
            }
          ],
          "name": "AidApproved",
          "type": "event"
        },
        {
          "anonymous": false,
          "inputs": [
            {
              "indexed": true,
              "internalType": "uint256",
              "name": "requestId",
              "type": "uint256"
            },
            {
              "indexed": true,
              "internalType": "address",
              "name": "student",
              "type": "address"
            }
          ],
          "name": "AidRejected",
          "type": "event"
        },
        {
          "anonymous": false,
          "inputs": [
            {
              "indexed": true,
              "internalType": "uint256",
              "name": "requestId",
              "type": "uint256"
            },
            {
              "indexed": true,
              "internalType": "uint256",
              "name": "universityId",
              "type": "uint256"
            },
            {
              "indexed": true,
              "internalType": "address",
              "name": "student",
              "type": "address"
            },
            {
              "indexed": false,
              "internalType": "uint256",
              "name": "amount",
              "type": "uint256"
            },
            {
              "indexed": false,
              "internalType": "string",
              "name": "reason",
              "type": "string"
            }
          ],
          "name": "AidRequested",
          "type": "event"
        },
        {
          "anonymous": false,
          "inputs": [
            {
              "indexed": true,
              "internalType": "uint256",
              "name": "universityId",
              "type": "uint256"
            },
            {
              "indexed": true,
              "internalType": "address",
              "name": "donor",
              "type": "address"
            },
            {
              "indexed": false,
              "internalType": "uint256",
              "name": "amount",
              "type": "uint256"
            }
          ],
          "name": "DonationReceived",
          "type": "event"
        },
        {
          "anonymous": false,
          "inputs": [
            {
              "indexed": true,
              "internalType": "uint256",
              "name": "id",
              "type": "uint256"
            },
            {
              "indexed": false,
              "internalType": "string",
              "name": "name",
              "type": "string"
            },
            {
              "indexed": false,
              "internalType": "address",
              "name": "admin",
              "type": "address"
            }
          ],
          "name": "UniversityRegistered",
          "type": "event"
        },
        {
          "inputs": [
            {
              "internalType": "uint256",
              "name": "_requestId",
              "type": "uint256"
            }
          ],
          "name": "approveAid",
          "outputs": [],
          "stateMutability": "nonpayable",
          "type": "function"
        },
        {
          "inputs": [
            {
              "internalType": "uint256",
              "name": "_universityId",
              "type": "uint256"
            },
            {
              "internalType": "uint256",
              "name": "_amount",
              "type": "uint256"
            }
          ],
          "name": "donate",
          "outputs": [],
          "stateMutability": "nonpayable",
          "type": "function"
        },
        {
          "inputs": [
            {
              "internalType": "uint256",
              "name": "",
              "type": "uint256"
            },
            {
              "internalType": "address",
              "name": "",
              "type": "address"
            }
          ],
          "name": "donorContributions",
          "outputs": [
            {
              "internalType": "uint256",
              "name": "",
              "type": "uint256"
            }
          ],
          "stateMutability": "view",
          "type": "function"
        },
        {
          "inputs": [
            {
              "internalType": "uint256",
              "name": "_universityId",
              "type": "uint256"
            }
          ],
          "name": "getDonorCount",
          "outputs": [
            {
              "internalType": "uint256",
              "name": "",
              "type": "uint256"
            }
          ],
          "stateMutability": "view",
          "type": "function"
        },
        {
          "inputs": [
            {
              "internalType": "uint256",
              "name": "_universityId",
              "type": "uint256"
            }
          ],
          "name": "getPendingRequests",
          "outputs": [
            {
              "components": [
                {
                  "internalType": "uint256",
                  "name": "id",
                  "type": "uint256"
                },
                {
                  "internalType": "uint256",
                  "name": "universityId",
                  "type": "uint256"
                },
                {
                  "internalType": "address",
                  "name": "student",
                  "type": "address"
                },
                {
                  "internalType": "uint256",
                  "name": "amount",
                  "type": "uint256"
                },
                {
                  "internalType": "string",
                  "name": "reason",
                  "type": "string"
                },
                {
                  "internalType": "bool",
                  "name": "isProcessed",
                  "type": "bool"
                },
                {
                  "internalType": "bool",
                  "name": "isApproved",
                  "type": "bool"
                },
                {
                  "internalType": "uint256",
                  "name": "timestamp",
                  "type": "uint256"
                }
              ],
              "internalType": "struct CampusShield.AidRequest[]",
              "name": "",
              "type": "tuple[]"
            }
          ],
          "stateMutability": "view",
          "type": "function"
        },
        {
          "inputs": [],
          "name": "getStats",
          "outputs": [
            {
              "internalType": "uint256",
              "name": "_universityCount",
              "type": "uint256"
            },
            {
              "internalType": "uint256",
              "name": "_requestCount",
              "type": "uint256"
            },
            {
              "internalType": "uint256",
              "name": "_totalDonated",
              "type": "uint256"
            },
            {
              "internalType": "uint256",
              "name": "_totalDisbursed",
              "type": "uint256"
            }
          ],
          "stateMutability": "view",
          "type": "function"
        },
        {
          "inputs": [
            {
              "internalType": "address",
              "name": "_student",
              "type": "address"
            }
          ],
          "name": "getStudentRequests",
          "outputs": [
            {
              "components": [
                {
                  "internalType": "uint256",
                  "name": "id",
                  "type": "uint256"
                },
                {
                  "internalType": "uint256",
                  "name": "universityId",
                  "type": "uint256"
                },
                {
                  "internalType": "address",
                  "name": "student",
                  "type": "address"
                },
                {
                  "internalType": "uint256",
                  "name": "amount",
                  "type": "uint256"
                },
                {
                  "internalType": "string",
                  "name": "reason",
                  "type": "string"
                },
                {
                  "internalType": "bool",
                  "name": "isProcessed",
                  "type": "bool"
                },
                {
                  "internalType": "bool",
                  "name": "isApproved",
                  "type": "bool"
                },
                {
                  "internalType": "uint256",
                  "name": "timestamp",
                  "type": "uint256"
                }
              ],
              "internalType": "struct CampusShield.AidRequest[]",
              "name": "",
              "type": "tuple[]"
            }
          ],
          "stateMutability": "view",
          "type": "function"
        },
        {
          "inputs": [
            {
              "internalType": "uint256",
              "name": "_universityId",
              "type": "uint256"
            }
          ],
          "name": "getUniversity",
          "outputs": [
            {
              "internalType": "string",
              "name": "name",
              "type": "string"
            },
            {
              "internalType": "address",
              "name": "admin",
              "type": "address"
            },
            {
              "internalType": "uint256",
              "name": "balance",
              "type": "uint256"
            },
            {
              "internalType": "bool",
              "name": "isActive",
              "type": "bool"
            },
            {
              "internalType": "uint256",
              "name": "donorCount",
              "type": "uint256"
            },
            {
              "internalType": "uint256",
              "name": "requestsCount",
              "type": "uint256"
            }
          ],
          "stateMutability": "view",
          "type": "function"
        },
        {
          "inputs": [
            {
              "internalType": "uint256",
              "name": "_universityId",
              "type": "uint256"
            }
          ],
          "name": "getUniversityRequests",
          "outputs": [
            {
              "components": [
                {
                  "internalType": "uint256",
                  "name": "id",
                  "type": "uint256"
                },
                {
                  "internalType": "uint256",
                  "name": "universityId",
                  "type": "uint256"
                },
                {
                  "internalType": "address",
                  "name": "student",
                  "type": "address"
                },
                {
                  "internalType": "uint256",
                  "name": "amount",
                  "type": "uint256"
                },
                {
                  "internalType": "string",
                  "name": "reason",
                  "type": "string"
                },
                {
                  "internalType": "bool",
                  "name": "isProcessed",
                  "type": "bool"
                },
                {
                  "internalType": "bool",
                  "name": "isApproved",
                  "type": "bool"
                },
                {
                  "internalType": "uint256",
                  "name": "timestamp",
                  "type": "uint256"
                }
              ],
              "internalType": "struct CampusShield.AidRequest[]",
              "name": "",
              "type": "tuple[]"
            }
          ],
          "stateMutability": "view",
          "type": "function"
        },
        {
          "inputs": [
            {
              "internalType": "string",
              "name": "_name",
              "type": "string"
            }
          ],
          "name": "registerUniversity",
          "outputs": [],
          "stateMutability": "nonpayable",
          "type": "function"
        },
        {
          "inputs": [
            {
              "internalType": "uint256",
              "name": "_requestId",
              "type": "uint256"
            }
          ],
          "name": "rejectAid",
          "outputs": [],
          "stateMutability": "nonpayable",
          "type": "function"
        },
        {
          "inputs": [
            {
              "internalType": "uint256",
              "name": "_universityId",
              "type": "uint256"
            },
            {
              "internalType": "uint256",
              "name": "_amount",
              "type": "uint256"
            },
            {
              "internalType": "string",
              "name": "_reason",
              "type": "string"
            }
          ],
          "name": "requestAid",
          "outputs": [],
          "stateMutability": "nonpayable",
          "type": "function"
        },
        {
          "inputs": [],
          "name": "requestCount",
          "outputs": [
            {
              "internalType": "uint256",
              "name": "",
              "type": "uint256"
            }
          ],
          "stateMutability": "view",
          "type": "function"
        },
        {
          "inputs": [
            {
              "internalType": "uint256",
              "name": "",
              "type": "uint256"
            }
          ],
          "name": "requests",
          "outputs": [
            {
              "internalType": "uint256",
              "name": "id",
              "type": "uint256"
            },
            {
              "internalType": "uint256",
              "name": "universityId",
              "type": "uint256"
            },
            {
              "internalType": "address",
              "name": "student",
              "type": "address"
            },
            {
              "internalType": "uint256",
              "name": "amount",
              "type": "uint256"
            },
            {
              "internalType": "string",
              "name": "reason",
              "type": "string"
            },
            {
              "internalType": "bool",
              "name": "isProcessed",
              "type": "bool"
            },
            {
              "internalType": "bool",
              "name": "isApproved",
              "type": "bool"
            },
            {
              "internalType": "uint256",
              "name": "timestamp",
              "type": "uint256"
            }
          ],
          "stateMutability": "view",
          "type": "function"
        },
        {
          "inputs": [
            {
              "internalType": "address",
              "name": "",
              "type": "address"
            },
            {
              "internalType": "uint256",
              "name": "",
              "type": "uint256"
            }
          ],
          "name": "studentRequests",
          "outputs": [
            {
              "internalType": "uint256",
              "name": "",
              "type": "uint256"
            }
          ],
          "stateMutability": "view",
          "type": "function"
        },
        {
          "inputs": [],
          "name": "totalDisbursed",
          "outputs": [
            {
              "internalType": "uint256",
              "name": "",
              "type": "uint256"
            }
          ],
          "stateMutability": "view",
          "type": "function"
        },
        {
          "inputs": [],
          "name": "totalDonated",
          "outputs": [
            {
              "internalType": "uint256",
              "name": "",
              "type": "uint256"
            }
          ],
          "stateMutability": "view",
          "type": "function"
        },
        {
          "inputs": [
            {
              "internalType": "uint256",
              "name": "",
              "type": "uint256"
            }
          ],
          "name": "universities",
          "outputs": [
            {
              "internalType": "string",
              "name": "name",
              "type": "string"
            },
            {
              "internalType": "address",
              "name": "admin",
              "type": "address"
            },
            {
              "internalType": "uint256",
              "name": "balance",
              "type": "uint256"
            },
            {
              "internalType": "bool",
              "name": "isActive",
              "type": "bool"
            }
          ],
          "stateMutability": "view",
          "type": "function"
        },
        {
          "inputs": [],
          "name": "universityCount",
          "outputs": [
            {
              "internalType": "uint256",
              "name": "",
              "type": "uint256"
            }
          ],
          "stateMutability": "view",
          "type": "function"
        },
        {
          "inputs": [
            {
              "internalType": "uint256",
              "name": "",
              "type": "uint256"
            },
            {
              "internalType": "uint256",
              "name": "",
              "type": "uint256"
            }
          ],
          "name": "universityDonors",
          "outputs": [
            {
              "internalType": "address",
              "name": "",
              "type": "address"
            }
          ],
          "stateMutability": "view",
          "type": "function"
        },
        {
          "inputs": [
            {
              "internalType": "uint256",
              "name": "",
              "type": "uint256"
            },
            {
              "internalType": "uint256",
              "name": "",
              "type": "uint256"
            }
          ],
          "name": "universityRequests",
          "outputs": [
            {
              "internalType": "uint256",
              "name": "",
              "type": "uint256"
            }
          ],
          "stateMutability": "view",
          "type": "function"
        },
        {
          "inputs": [],
          "name": "usdc",
          "outputs": [
            {
              "internalType": "contract IERC20",
              "name": "",
              "type": "address"
            }
          ],
          "stateMutability": "view",
          "type": "function"
        }
      ],
      "evm": {
        "bytecode": {
          "linkReferences": {},
          "object": "60a060405234801561001057600080fd5b506040516200207638038062002076833981016040819052610031916100a1565b60016000556001600160a01b0381166100905760405162461bcd60e51b815260206004820152601460248201527f496e76616c696420555344432061646472657373000000000000000000000000604482015260640160405180910390fd5b6001600160a01b03166080526100d1565b6000602082840312156100b357600080fd5b81516001600160a01b03811681146100ca57600080fd5b9392505050565b608051611f7b620000fb600039600081816101cd015281816104a001526117490152611f7b6000f3fe608060405234801561001057600080fd5b50600436106101415760003560e01c80635943c705116100b85780639c38f65f1161007c5780639c38f65f146102df5780639cbdf59314610302578063bf95c78d14610315578063c59d48471461031e578063c99086d01461034a578063cb0186d41461036f57600080fd5b80635943c705146102695780635badbe4c146102895780636faa93d1146102925780637c52df88146102a557806381d12c58146102b857600080fd5b80633e413bee1161010a5780633e413bee146101c8578063418374f31461020757806349b279ad146102105780634e8eb4a6146102305780635386a4ae1461024357806358dc71a31461025657600080fd5b8062b37044146101465780630cdd53f614610162578063147b2b06146101775780632ce416f51461018a5780633e2f29151461019d575b600080fd5b61014f60035481565b6040519081526020015b60405180910390f35b61017561017036600461195c565b610382565b005b610175610185366004611a21565b6105ca565b61014f610198366004611a8d565b61088c565b61014f6101ab366004611ab7565b600a60209081526000928352604080842090915290825290205481565b6101ef7f000000000000000000000000000000000000000000000000000000000000000081565b6040516001600160a01b039091168152602001610159565b61014f60015481565b61022361021e366004611ae3565b6108bd565b6040516101599190611b4b565b6101ef61023e36600461195c565b610af7565b610175610251366004611c1d565b610b2f565b61014f61026436600461195c565b610c86565b61014f610277366004611c1d565b60009081526009602052604090205490565b61014f60025481565b6101756102a0366004611c36565b610ca2565b6102236102b3366004611c1d565b610dcd565b6102cb6102c6366004611c1d565b610ff5565b604051610159989796959493929190611c73565b6102f26102ed366004611c1d565b6110d1565b6040516101599493929190611cc8565b610223610310366004611c1d565b611190565b61014f60045481565b600154600254600354600454604080519485526020850193909352918301526060820152608001610159565b61035d610358366004611c1d565b61146c565b60405161015996959493929190611d02565b61017561037d366004611c1d565b611563565b61038a6117cc565b8160008111801561039d57506001548111155b6103ea5760405162461bcd60e51b8152602060048201526019602482015278155b9a5d995c9cda5d1e48191bd95cc81b9bdd08195e1a5cdd603a1b60448201526064015b60405180910390fd5b60008181526005602052604090206003015460ff166104435760405162461bcd60e51b8152602060048201526015602482015274556e6976657273697479206e6f742061637469766560581b60448201526064016103e1565b600082116104935760405162461bcd60e51b815260206004820152601d60248201527f416d6f756e74206d7573742062652067726561746572207468616e203000000060448201526064016103e1565b6104c86001600160a01b037f0000000000000000000000000000000000000000000000000000000000000000163330856117f6565b600083815260056020526040812060020180548492906104e9908490611d5d565b9250508190555081600360008282546105029190611d5d565b90915550506000838152600a6020908152604080832033845290915281205490036105565760008381526009602090815260408220805460018101825590835291200180546001600160a01b031916331790555b6000838152600a602090815260408083203384529091528120805484929061057f908490611d5d565b9091555050604051828152339084907f0b5b4c52969ff7329ecf7ee536409fda87812b15a8622bc6e8cdeab3aee14a269060200160405180910390a3506105c66001600055565b5050565b826000811180156105dd57506001548111155b6106255760405162461bcd60e51b8152602060048201526019602482015278155b9a5d995c9cda5d1e48191bd95cc81b9bdd08195e1a5cdd603a1b60448201526064016103e1565b60008181526005602052604090206003015460ff1661067e5760405162461bcd60e51b8152602060048201526015602482015274556e6976657273697479206e6f742061637469766560581b60448201526064016103e1565b600083116106ce5760405162461bcd60e51b815260206004820152601d60248201527f416d6f756e74206d7573742062652067726561746572207468616e203000000060448201526064016103e1565b60008251116107185760405162461bcd60e51b8152602060048201526016602482015275526561736f6e2063616e6e6f7420626520656d70747960501b60448201526064016103e1565b6002805490600061072883611d76565b9091555050604080516101008101825260028054808352602080840189815233858701908152606086018a8152608087018a8152600060a0890181905260c089018190524260e08a01529586526006909452969093208551815590516001820155915192820180546001600160a01b0319166001600160a01b0390941693909317909255925160038401555190919060048201906107c69082611e19565b5060a082015160058201805460c085015115156101000261ff00199315159390931661ffff199091161791909117905560e09091015160069091015533600081815260076020908152604080832060028054825460018181018555938752858720015589855260088452828520815481549384018255908652939094200191909155905490518691907faec765c4d202cc54f8ce54b720323839e606826b43626764e23b3a17120cd0629061087e9088908890611ed9565b60405180910390a450505050565b600760205281600052604060002081815481106108a857600080fd5b90600052602060002001600091509150505481565b6001600160a01b038116600090815260076020908152604080832080548251818502810185019093528083526060949383018282801561091c57602002820191906000526020600020905b815481526020019060010190808311610908575b505050505090506000815167ffffffffffffffff81111561093f5761093f61197e565b60405190808252806020026020018201604052801561097857816020015b61096561190a565b81526020019060019003908161095d5790505b50905060005b8251811015610aef576006600084838151811061099d5761099d611ef2565b602002602001015181526020019081526020016000206040518061010001604052908160008201548152602001600182015481526020016002820160009054906101000a90046001600160a01b03166001600160a01b03166001600160a01b0316815260200160038201548152602001600482018054610a1c90611d8f565b80601f0160208091040260200160405190810160405280929190818152602001828054610a4890611d8f565b8015610a955780601f10610a6a57610100808354040283529160200191610a95565b820191906000526020600020905b815481529060010190602001808311610a7857829003601f168201915b5050509183525050600582015460ff8082161515602084015261010090910416151560408201526006909101546060909101528251839083908110610adc57610adc611ef2565b602090810291909101015260010161097e565b509392505050565b60096020528160005260406000208181548110610b1357600080fd5b6000918252602090912001546001600160a01b03169150829050565b60008181526006602052604081208054909103610b875760405162461bcd60e51b815260206004820152601660248201527514995c5d595cdd08191bd95cc81b9bdd08195e1a5cdd60521b60448201526064016103e1565b600581015460ff1615610bd85760405162461bcd60e51b815260206004820152601960248201527814995c5d595cdd08185b1c9958591e481c1c9bd8d95cdcd959603a1b60448201526064016103e1565b600180820154600090815260056020526040902001546001600160a01b03163314610c365760405162461bcd60e51b815260206004820152600e60248201526d139bdd08185d5d1a1bdc9a5e995960921b60448201526064016103e1565b60058101805461ffff1916600117905560028101546040516001600160a01b039091169083907fcedc2272aa92f5af6b5d9fe71d06813ec5bc5cb1e7245aa42ab5bb96dde86c7290600090a35050565b600860205281600052604060002081815481106108a857600080fd5b6000815111610cea5760405162461bcd60e51b81526020600482015260146024820152734e616d652063616e6e6f7420626520656d70747960601b60448201526064016103e1565b60018054906000610cfa83611d76565b90915550506040805160808101825282815233602080830191909152600082840181905260016060840181905254815260059091529190912081518190610d419082611e19565b506020820151600182810180546001600160a01b0319166001600160a01b039093169290921790915560408084015160028401556060909301516003909201805460ff1916921515929092179091555490517f61b9329e03f6ba47ac920bf1af9a927185566970b4712dab1ff01e8d977d9ad090610dc29084903390611f08565b60405180910390a250565b6000818152600860209081526040808320805482518185028101850190935280835260609493830182828015610e2257602002820191906000526020600020905b815481526020019060010190808311610e0e575b505050505090506000815167ffffffffffffffff811115610e4557610e4561197e565b604051908082528060200260200182016040528015610e7e57816020015b610e6b61190a565b815260200190600190039081610e635790505b50905060005b8251811015610aef5760066000848381518110610ea357610ea3611ef2565b602002602001015181526020019081526020016000206040518061010001604052908160008201548152602001600182015481526020016002820160009054906101000a90046001600160a01b03166001600160a01b03166001600160a01b0316815260200160038201548152602001600482018054610f2290611d8f565b80601f0160208091040260200160405190810160405280929190818152602001828054610f4e90611d8f565b8015610f9b5780601f10610f7057610100808354040283529160200191610f9b565b820191906000526020600020905b815481529060010190602001808311610f7e57829003601f168201915b5050509183525050600582015460ff8082161515602084015261010090910416151560408201526006909101546060909101528251839083908110610fe257610fe2611ef2565b6020908102919091010152600101610e84565b60066020526000908152604090208054600182015460028301546003840154600485018054949593946001600160a01b0390931693919261103590611d8f565b80601f016020809104026020016040519081016040528092919081815260200182805461106190611d8f565b80156110ae5780601f10611083576101008083540402835291602001916110ae565b820191906000526020600020905b81548152906001019060200180831161109157829003601f168201915b505050506005830154600690930154919260ff8082169361010090920416915088565b6005602052600090815260409020805481906110ec90611d8f565b80601f016020809104026020016040519081016040528092919081815260200182805461111890611d8f565b80156111655780601f1061113a57610100808354040283529160200191611165565b820191906000526020600020905b81548152906001019060200180831161114857829003601f168201915b505050506001830154600284015460039094015492936001600160a01b039091169290915060ff1684565b60008181526008602090815260408083208054825181850281018501909352808352606094938301828280156111e557602002820191906000526020600020905b8154815260200190600101908083116111d1575b505050505090506000805b825181101561124a576006600084838151811061120f5761120f611ef2565b60209081029190910181015182528101919091526040016000206005015460ff16611242578161123e81611d76565b9250505b6001016111f0565b5060008167ffffffffffffffff8111156112665761126661197e565b60405190808252806020026020018201604052801561129f57816020015b61128c61190a565b8152602001906001900390816112845790505b5090506000805b845181101561146157600660008683815181106112c5576112c5611ef2565b60209081029190910181015182528101919091526040016000206005015460ff16611459576006600086838151811061130057611300611ef2565b602002602001015181526020019081526020016000206040518061010001604052908160008201548152602001600182015481526020016002820160009054906101000a90046001600160a01b03166001600160a01b03166001600160a01b031681526020016003820154815260200160048201805461137f90611d8f565b80601f01602080910402602001604051908101604052809291908181526020018280546113ab90611d8f565b80156113f85780601f106113cd576101008083540402835291602001916113f8565b820191906000526020600020905b8154815290600101906020018083116113db57829003601f168201915b5050509183525050600582015460ff808216151560208401526101009091041615156040820152600690910154606090910152835184908490811061143f5761143f611ef2565b6020026020010181905250818061145590611d76565b9250505b6001016112a6565b509095945050505050565b600081815260056020908152604080832060018101546002820154600383015460098652848720546008909652938620548354606097968796879687968796919586956001600160a01b0390921694929360ff16929186906114cd90611d8f565b80601f01602080910402602001604051908101604052809291908181526020018280546114f990611d8f565b80156115465780601f1061151b57610100808354040283529160200191611546565b820191906000526020600020905b81548152906001019060200180831161152957829003601f168201915b505050505095509650965096509650965096505091939550919395565b61156b6117cc565b600081815260066020526040812080549091036115c35760405162461bcd60e51b815260206004820152601660248201527514995c5d595cdd08191bd95cc81b9bdd08195e1a5cdd60521b60448201526064016103e1565b600581015460ff16156116145760405162461bcd60e51b815260206004820152601960248201527814995c5d595cdd08185b1c9958591e481c1c9bd8d95cdcd959603a1b60448201526064016103e1565b600180820154600090815260056020526040902001546001600160a01b031633146116725760405162461bcd60e51b815260206004820152600e60248201526d139bdd08185d5d1a1bdc9a5e995960921b60448201526064016103e1565b6003810154600182015460009081526005602052604090206002015410156116d15760405162461bcd60e51b8152602060048201526012602482015271496e73756666696369656e742066756e647360701b60448201526064016103e1565b6005818101805461ffff191661010117905560038201546001830154600090815260209290925260408220600201805491929091611710908490611f32565b909155505060038101546004805460009061172c908490611d5d565b909155505060028101546003820154611773916001600160a01b037f0000000000000000000000000000000000000000000000000000000000000000811692911690611863565b600281015460038201546040519081526001600160a01b039091169083907f9d8beccc2804c8df195cd5a6b895235d75657a7c6c49365f334ad4b9f784478e9060200160405180910390a3506117c96001600055565b50565b6002600054036117ef57604051633ee5aeb560e01b815260040160405180910390fd5b6002600055565b6040516001600160a01b03848116602483015283811660448301526064820183905261185d9186918216906323b872dd906084015b604051602081830303815290604052915060e01b6020820180516001600160e01b038381831617835250505050611899565b50505050565b6040516001600160a01b0383811660248301526044820183905261189491859182169063a9059cbb9060640161182b565b505050565b600080602060008451602086016000885af1806118bc576040513d6000823e3d81fd5b50506000513d915081156118d45780600114156118e1565b6001600160a01b0384163b155b1561185d57604051635274afe760e01b81526001600160a01b03851660048201526024016103e1565b604051806101000160405280600081526020016000815260200160006001600160a01b031681526020016000815260200160608152602001600015158152602001600015158152602001600081525090565b6000806040838503121561196f57600080fd5b50508035926020909101359150565b634e487b7160e01b600052604160045260246000fd5b600082601f8301126119a557600080fd5b813567ffffffffffffffff808211156119c0576119c061197e565b604051601f8301601f19908116603f011681019082821181831017156119e8576119e861197e565b81604052838152866020858801011115611a0157600080fd5b836020870160208301376000602085830101528094505050505092915050565b600080600060608486031215611a3657600080fd5b8335925060208401359150604084013567ffffffffffffffff811115611a5b57600080fd5b611a6786828701611994565b9150509250925092565b80356001600160a01b0381168114611a8857600080fd5b919050565b60008060408385031215611aa057600080fd5b611aa983611a71565b946020939093013593505050565b60008060408385031215611aca57600080fd5b82359150611ada60208401611a71565b90509250929050565b600060208284031215611af557600080fd5b611afe82611a71565b9392505050565b6000815180845260005b81811015611b2b57602081850181015186830182015201611b0f565b506000602082860101526020601f19601f83011685010191505092915050565b600060208083018184528085518083526040925060408601915060408160051b87010184880160005b83811015611c0f57888303603f190185528151805184528781015188850152868101516001600160a01b031687850152606080820151908501526080808201516101008287018190529190611bcb83880182611b05565b9250505060a0808301511515818701525060c080830151611bef8288018215159052565b505060e09182015194909101939093529386019390860190600101611b74565b509098975050505050505050565b600060208284031215611c2f57600080fd5b5035919050565b600060208284031215611c4857600080fd5b813567ffffffffffffffff811115611c5f57600080fd5b611c6b84828501611994565b949350505050565b60006101008a835289602084015260018060a01b0389166040840152876060840152806080840152611ca781840188611b05565b95151560a0840152505091151560c083015260e09091015295945050505050565b608081526000611cdb6080830187611b05565b6001600160a01b039590951660208301525060408101929092521515606090910152919050565b60c081526000611d1560c0830189611b05565b6001600160a01b039790971660208301525060408101949094529115156060840152608083015260a090910152919050565b634e487b7160e01b600052601160045260246000fd5b80820180821115611d7057611d70611d47565b92915050565b600060018201611d8857611d88611d47565b5060010190565b600181811c90821680611da357607f821691505b602082108103611dc357634e487b7160e01b600052602260045260246000fd5b50919050565b601f821115611894576000816000526020600020601f850160051c81016020861015611df25750805b601f850160051c820191505b81811015611e1157828155600101611dfe565b505050505050565b815167ffffffffffffffff811115611e3357611e3361197e565b611e4781611e418454611d8f565b84611dc9565b602080601f831160018114611e7c5760008415611e645750858301515b600019600386901b1c1916600185901b178555611e11565b600085815260208120601f198616915b82811015611eab57888601518255948401946001909101908401611e8c565b5085821015611ec95787850151600019600388901b60f8161c191681555b5050505050600190811b01905550565b828152604060208201526000611c6b6040830184611b05565b634e487b7160e01b600052603260045260246000fd5b604081526000611f1b6040830185611b05565b905060018060a01b03831660208301529392505050565b81810381811115611d7057611d70611d4756fea264697066735822122083305e094f4c9a89132fe4f6f5ef336e00f458536059e22090da1403595ddd8764736f6c63430008180033",
          "opcodes": "PUSH1 0xA0 PUSH1 0x40 MSTORE CALLVALUE DUP1 ISZERO PUSH2 0x10 JUMPI PUSH1 0x0 DUP1 REVERT JUMPDEST POP PUSH1 0x40 MLOAD PUSH3 0x2076 CODESIZE SUB DUP1 PUSH3 0x2076 DUP4 CODECOPY DUP2 ADD PUSH1 0x40 DUP2 SWAP1 MSTORE PUSH2 0x31 SWAP2 PUSH2 0xA1 JUMP JUMPDEST PUSH1 0x1 PUSH1 0x0 SSTORE PUSH1 0x1 PUSH1 0x1 PUSH1 0xA0 SHL SUB DUP2 AND PUSH2 0x90 JUMPI PUSH1 0x40 MLOAD PUSH3 0x461BCD PUSH1 0xE5 SHL DUP2 MSTORE PUSH1 0x20 PUSH1 0x4 DUP3 ADD MSTORE PUSH1 0x14 PUSH1 0x24 DUP3 ADD MSTORE PUSH32 0x496E76616C696420555344432061646472657373000000000000000000000000 PUSH1 0x44 DUP3 ADD MSTORE PUSH1 0x64 ADD PUSH1 0x40 MLOAD DUP1 SWAP2 SUB SWAP1 REVERT JUMPDEST PUSH1 0x1 PUSH1 0x1 PUSH1 0xA0 SHL SUB AND PUSH1 0x80 MSTORE PUSH2 0xD1 JUMP JUMPDEST PUSH1 0x0 PUSH1 0x20 DUP3 DUP5 SUB SLT ISZERO PUSH2 0xB3 JUMPI PUSH1 0x0 DUP1 REVERT JUMPDEST DUP2 MLOAD PUSH1 0x1 PUSH1 0x1 PUSH1 0xA0 SHL SUB DUP2 AND DUP2 EQ PUSH2 0xCA JUMPI PUSH1 0x0 DUP1 REVERT JUMPDEST SWAP4 SWAP3 POP POP POP JUMP JUMPDEST PUSH1 0x80 MLOAD PUSH2 0x1F7B PUSH3 0xFB PUSH1 0x0 CODECOPY PUSH1 0x0 DUP2 DUP2 PUSH2 0x1CD ADD MSTORE DUP2 DUP2 PUSH2 0x4A0 ADD MSTORE PUSH2 0x1749 ADD MSTORE PUSH2 0x1F7B PUSH1 0x0 RETURN INVALID PUSH1 0x80 PUSH1 0x40 MSTORE CALLVALUE DUP1 ISZERO PUSH2 0x10 JUMPI PUSH1 0x0 DUP1 REVERT JUMPDEST POP PUSH1 0x4 CALLDATASIZE LT PUSH2 0x141 JUMPI PUSH1 0x0 CALLDATALOAD PUSH1 0xE0 SHR DUP1 PUSH4 0x5943C705 GT PUSH2 0xB8 JUMPI DUP1 PUSH4 0x9C38F65F GT PUSH2 0x7C JUMPI DUP1 PUSH4 0x9C38F65F EQ PUSH2 0x2DF JUMPI DUP1 PUSH4 0x9CBDF593 EQ PUSH2 0x302 JUMPI DUP1 PUSH4 0xBF95C78D EQ PUSH2 0x315 JUMPI DUP1 PUSH4 0xC59D4847 EQ PUSH2 0x31E JUMPI DUP1 PUSH4 0xC99086D0 EQ PUSH2 0x34A JUMPI DUP1 PUSH4 0xCB0186D4 EQ PUSH2 0x36F JUMPI PUSH1 0x0 DUP1 REVERT JUMPDEST DUP1 PUSH4 0x5943C705 EQ PUSH2 0x269 JUMPI DUP1 PUSH4 0x5BADBE4C EQ PUSH2 0x289 JUMPI DUP1 PUSH4 0x6FAA93D1 EQ PUSH2 0x292 JUMPI DUP1 PUSH4 0x7C52DF88 EQ PUSH2 0x2A5 JUMPI DUP1 PUSH4 0x81D12C58 EQ PUSH2 0x2B8 JUMPI PUSH1 0x0 DUP1 REVERT JUMPDEST DUP1 PUSH4 0x3E413BEE GT PUSH2 0x10A JUMPI DUP1 PUSH4 0x3E413BEE EQ PUSH2 0x1C8 JUMPI DUP1 PUSH4 0x418374F3 EQ PUSH2 0x207 JUMPI DUP1 PUSH4 0x49B279AD EQ PUSH2 0x210 JUMPI DUP1 PUSH4 0x4E8EB4A6 EQ PUSH2 0x230 JUMPI DUP1 PUSH4 0x5386A4AE EQ PUSH2 0x243 JUMPI DUP1 PUSH4 0x58DC71A3 EQ PUSH2 0x256 JUMPI PUSH1 0x0 DUP1 REVERT JUMPDEST DUP1 PUSH3 0xB37044 EQ PUSH2 0x146 JUMPI DUP1 PUSH4 0xCDD53F6 EQ PUSH2 0x162 JUMPI DUP1 PUSH4 0x147B2B06 EQ PUSH2 0x177 JUMPI DUP1 PUSH4 0x2CE416F5 EQ PUSH2 0x18A JUMPI DUP1 PUSH4 0x3E2F2915 EQ PUSH2 0x19D JUMPI JUMPDEST PUSH1 0x0 DUP1 REVERT JUMPDEST PUSH2 0x14F PUSH1 0x3 SLOAD DUP2 JUMP JUMPDEST PUSH1 0x40 MLOAD SWAP1 DUP2 MSTORE PUSH1 0x20 ADD JUMPDEST PUSH1 0x40 MLOAD DUP1 SWAP2 SUB SWAP1 RETURN JUMPDEST PUSH2 0x175 PUSH2 0x170 CALLDATASIZE PUSH1 0x4 PUSH2 0x195C JUMP JUMPDEST PUSH2 0x382 JUMP JUMPDEST STOP JUMPDEST PUSH2 0x175 PUSH2 0x185 CALLDATASIZE PUSH1 0x4 PUSH2 0x1A21 JUMP JUMPDEST PUSH2 0x5CA JUMP JUMPDEST PUSH2 0x14F PUSH2 0x198 CALLDATASIZE PUSH1 0x4 PUSH2 0x1A8D JUMP JUMPDEST PUSH2 0x88C JUMP JUMPDEST PUSH2 0x14F PUSH2 0x1AB CALLDATASIZE PUSH1 0x4 PUSH2 0x1AB7 JUMP JUMPDEST PUSH1 0xA PUSH1 0x20 SWAP1 DUP2 MSTORE PUSH1 0x0 SWAP3 DUP4 MSTORE PUSH1 0x40 DUP1 DUP5 KECCAK256 SWAP1 SWAP2 MSTORE SWAP1 DUP3 MSTORE SWAP1 KECCAK256 SLOAD DUP2 JUMP JUMPDEST PUSH2 0x1EF PUSH32 0x0 DUP2 JUMP JUMPDEST PUSH1 0x40 MLOAD PUSH1 0x1 PUSH1 0x1 PUSH1 0xA0 SHL SUB SWAP1 SWAP2 AND DUP2 MSTORE PUSH1 0x20 ADD PUSH2 0x159 JUMP JUMPDEST PUSH2 0x14F PUSH1 0x1 SLOAD DUP2 JUMP JUMPDEST PUSH2 0x223 PUSH2 0x21E CALLDATASIZE PUSH1 0x4 PUSH2 0x1AE3 JUMP JUMPDEST PUSH2 0x8BD JUMP JUMPDEST PUSH1 0x40 MLOAD PUSH2 0x159 SWAP2 SWAP1 PUSH2 0x1B4B JUMP JUMPDEST PUSH2 0x1EF PUSH2 0x23E CALLDATASIZE PUSH1 0x4 PUSH2 0x195C JUMP JUMPDEST PUSH2 0xAF7 JUMP JUMPDEST PUSH2 0x175 PUSH2 0x251 CALLDATASIZE PUSH1 0x4 PUSH2 0x1C1D JUMP JUMPDEST PUSH2 0xB2F JUMP JUMPDEST PUSH2 0x14F PUSH2 0x264 CALLDATASIZE PUSH1 0x4 PUSH2 0x195C JUMP JUMPDEST PUSH2 0xC86 JUMP JUMPDEST PUSH2 0x14F PUSH2 0x277 CALLDATASIZE PUSH1 0x4 PUSH2 0x1C1D JUMP JUMPDEST PUSH1 0x0 SWAP1 DUP2 MSTORE PUSH1 0x9 PUSH1 0x20 MSTORE PUSH1 0x40 SWAP1 KECCAK256 SLOAD SWAP1 JUMP JUMPDEST PUSH2 0x14F PUSH1 0x2 SLOAD DUP2 JUMP JUMPDEST PUSH2 0x175 PUSH2 0x2A0 CALLDATASIZE PUSH1 0x4 PUSH2 0x1C36 JUMP JUMPDEST PUSH2 0xCA2 JUMP JUMPDEST PUSH2 0x223 PUSH2 0x2B3 CALLDATASIZE PUSH1 0x4 PUSH2 0x1C1D JUMP JUMPDEST PUSH2 0xDCD JUMP JUMPDEST PUSH2 0x2CB PUSH2 0x2C6 CALLDATASIZE PUSH1 0x4 PUSH2 0x1C1D JUMP JUMPDEST PUSH2 0xFF5 JUMP JUMPDEST PUSH1 0x40 MLOAD PUSH2 0x159 SWAP9 SWAP8 SWAP7 SWAP6 SWAP5 SWAP4 SWAP3 SWAP2 SWAP1 PUSH2 0x1C73 JUMP JUMPDEST PUSH2 0x2F2 PUSH2 0x2ED CALLDATASIZE PUSH1 0x4 PUSH2 0x1C1D JUMP JUMPDEST PUSH2 0x10D1 JUMP JUMPDEST PUSH1 0x40 MLOAD PUSH2 0x159 SWAP5 SWAP4 SWAP3 SWAP2 SWAP1 PUSH2 0x1CC8 JUMP JUMPDEST PUSH2 0x223 PUSH2 0x310 CALLDATASIZE PUSH1 0x4 PUSH2 0x1C1D JUMP JUMPDEST PUSH2 0x1190 JUMP JUMPDEST PUSH2 0x14F PUSH1 0x4 SLOAD DUP2 JUMP JUMPDEST PUSH1 0x1 SLOAD PUSH1 0x2 SLOAD PUSH1 0x3 SLOAD PUSH1 0x4 SLOAD PUSH1 0x40 DUP1 MLOAD SWAP5 DUP6 MSTORE PUSH1 0x20 DUP6 ADD SWAP4 SWAP1 SWAP4 MSTORE SWAP2 DUP4 ADD MSTORE PUSH1 0x60 DUP3 ADD MSTORE PUSH1 0x80 ADD PUSH2 0x159 JUMP JUMPDEST PUSH2 0x35D PUSH2 0x358 CALLDATASIZE PUSH1 0x4 PUSH2 0x1C1D JUMP JUMPDEST PUSH2 0x146C JUMP JUMPDEST PUSH1 0x40 MLOAD PUSH2 0x159 SWAP7 SWAP6 SWAP5 SWAP4 SWAP3 SWAP2 SWAP1 PUSH2 0x1D02 JUMP JUMPDEST PUSH2 0x175 PUSH2 0x37D CALLDATASIZE PUSH1 0x4 PUSH2 0x1C1D JUMP JUMPDEST PUSH2 0x1563 JUMP JUMPDEST PUSH2 0x38A PUSH2 0x17CC JUMP JUMPDEST DUP2 PUSH1 0x0 DUP2 GT DUP1 ISZERO PUSH2 0x39D JUMPI POP PUSH1 0x1 SLOAD DUP2 GT ISZERO JUMPDEST PUSH2 0x3EA JUMPI PUSH1 0x40 MLOAD PUSH3 0x461BCD PUSH1 0xE5 SHL DUP2 MSTORE PUSH1 0x20 PUSH1 0x4 DUP3 ADD MSTORE PUSH1 0x19 PUSH1 0x24 DUP3 ADD MSTORE PUSH25 0x155B9A5D995C9CDA5D1E48191BD95CC81B9BDD08195E1A5CDD PUSH1 0x3A SHL PUSH1 0x44 DUP3 ADD MSTORE PUSH1 0x64 ADD JUMPDEST PUSH1 0x40 MLOAD DUP1 SWAP2 SUB SWAP1 REVERT JUMPDEST PUSH1 0x0 DUP2 DUP2 MSTORE PUSH1 0x5 PUSH1 0x20 MSTORE PUSH1 0x40 SWAP1 KECCAK256 PUSH1 0x3 ADD SLOAD PUSH1 0xFF AND PUSH2 0x443 JUMPI PUSH1 0x40 MLOAD PUSH3 0x461BCD PUSH1 0xE5 SHL DUP2 MSTORE PUSH1 0x20 PUSH1 0x4 DUP3 ADD MSTORE PUSH1 0x15 PUSH1 0x24 DUP3 ADD MSTORE PUSH21 0x556E6976657273697479206E6F7420616374697665 PUSH1 0x58 SHL PUSH1 0x44 DUP3 ADD MSTORE PUSH1 0x64 ADD PUSH2 0x3E1 JUMP JUMPDEST PUSH1 0x0 DUP3 GT PUSH2 0x493 JUMPI PUSH1 0x40 MLOAD PUSH3 0x461BCD PUSH1 0xE5 SHL DUP2 MSTORE PUSH1 0x20 PUSH1 0x4 DUP3 ADD MSTORE PUSH1 0x1D PUSH1 0x24 DUP3 ADD MSTORE PUSH32 0x416D6F756E74206D7573742062652067726561746572207468616E2030000000 PUSH1 0x44 DUP3 ADD MSTORE PUSH1 0x64 ADD PUSH2 0x3E1 JUMP JUMPDEST PUSH2 0x4C8 PUSH1 0x1 PUSH1 0x1 PUSH1 0xA0 SHL SUB PUSH32 0x0 AND CALLER ADDRESS DUP6 PUSH2 0x17F6 JUMP JUMPDEST PUSH1 0x0 DUP4 DUP2 MSTORE PUSH1 0x5 PUSH1 0x20 MSTORE PUSH1 0x40 DUP2 KECCAK256 PUSH1 0x2 ADD DUP1 SLOAD DUP5 SWAP3 SWAP1 PUSH2 0x4E9 SWAP1 DUP5 SWAP1 PUSH2 0x1D5D JUMP JUMPDEST SWAP3 POP POP DUP2 SWAP1 SSTORE POP DUP2 PUSH1 0x3 PUSH1 0x0 DUP3 DUP3 SLOAD PUSH2 0x502 SWAP2 SWAP1 PUSH2 0x1D5D JUMP JUMPDEST SWAP1 SWAP2 SSTORE POP POP PUSH1 0x0 DUP4 DUP2 MSTORE PUSH1 0xA PUSH1 0x20 SWAP1 DUP2 MSTORE PUSH1 0x40 DUP1 DUP4 KECCAK256 CALLER DUP5 MSTORE SWAP1 SWAP2 MSTORE DUP2 KECCAK256 SLOAD SWAP1 SUB PUSH2 0x556 JUMPI PUSH1 0x0 DUP4 DUP2 MSTORE PUSH1 0x9 PUSH1 0x20 SWAP1 DUP2 MSTORE PUSH1 0x40 DUP3 KECCAK256 DUP1 SLOAD PUSH1 0x1 DUP2 ADD DUP3 SSTORE SWAP1 DUP4 MSTORE SWAP2 KECCAK256 ADD DUP1 SLOAD PUSH1 0x1 PUSH1 0x1 PUSH1 0xA0 SHL SUB NOT AND CALLER OR SWAP1 SSTORE JUMPDEST PUSH1 0x0 DUP4 DUP2 MSTORE PUSH1 0xA PUSH1 0x20 SWAP1 DUP2 MSTORE PUSH1 0x40 DUP1 DUP4 KECCAK256 CALLER DUP5 MSTORE SWAP1 SWAP2 MSTORE DUP2 KECCAK256 DUP1 SLOAD DUP5 SWAP3 SWAP1 PUSH2 0x57F SWAP1 DUP5 SWAP1 PUSH2 0x1D5D JUMP JUMPDEST SWAP1 SWAP2 SSTORE POP POP PUSH1 0x40 MLOAD DUP3 DUP2 MSTORE CALLER SWAP1 DUP5 SWAP1 PUSH32 0xB5B4C52969FF7329ECF7EE536409FDA87812B15A8622BC6E8CDEAB3AEE14A26 SWAP1 PUSH1 0x20 ADD PUSH1 0x40 MLOAD DUP1 SWAP2 SUB SWAP1 LOG3 POP PUSH2 0x5C6 PUSH1 0x1 PUSH1 0x0 SSTORE JUMP JUMPDEST POP POP JUMP JUMPDEST DUP3 PUSH1 0x0 DUP2 GT DUP1 ISZERO PUSH2 0x5DD JUMPI POP PUSH1 0x1 SLOAD DUP2 GT ISZERO JUMPDEST PUSH2 0x625 JUMPI PUSH1 0x40 MLOAD PUSH3 0x461BCD PUSH1 0xE5 SHL DUP2 MSTORE PUSH1 0x20 PUSH1 0x4 DUP3 ADD MSTORE PUSH1 0x19 PUSH1 0x24 DUP3 ADD MSTORE PUSH25 0x155B9A5D995C9CDA5D1E48191BD95CC81B9BDD08195E1A5CDD PUSH1 0x3A SHL PUSH1 0x44 DUP3 ADD MSTORE PUSH1 0x64 ADD PUSH2 0x3E1 JUMP JUMPDEST PUSH1 0x0 DUP2 DUP2 MSTORE PUSH1 0x5 PUSH1 0x20 MSTORE PUSH1 0x40 SWAP1 KECCAK256 PUSH1 0x3 ADD SLOAD PUSH1 0xFF AND PUSH2 0x67E JUMPI PUSH1 0x40 MLOAD PUSH3 0x461BCD PUSH1 0xE5 SHL DUP2 MSTORE PUSH1 0x20 PUSH1 0x4 DUP3 ADD MSTORE PUSH1 0x15 PUSH1 0x24 DUP3 ADD MSTORE PUSH21 0x556E6976657273697479206E6F7420616374697665 PUSH1 0x58 SHL PUSH1 0x44 DUP3 ADD MSTORE PUSH1 0x64 ADD PUSH2 0x3E1 JUMP JUMPDEST PUSH1 0x0 DUP4 GT PUSH2 0x6CE JUMPI PUSH1 0x40 MLOAD PUSH3 0x461BCD PUSH1 0xE5 SHL DUP2 MSTORE PUSH1 0x20 PUSH1 0x4 DUP3 ADD MSTORE PUSH1 0x1D PUSH1 0x24 DUP3 ADD MSTORE PUSH32 0x416D6F756E74206D7573742062652067726561746572207468616E2030000000 PUSH1 0x44 DUP3 ADD MSTORE PUSH1 0x64 ADD PUSH2 0x3E1 JUMP JUMPDEST PUSH1 0x0 DUP3 MLOAD GT PUSH2 0x718 JUMPI PUSH1 0x40 MLOAD PUSH3 0x461BCD PUSH1 0xE5 SHL DUP2 MSTORE PUSH1 0x20 PUSH1 0x4 DUP3 ADD MSTORE PUSH1 0x16 PUSH1 0x24 DUP3 ADD MSTORE PUSH22 0x526561736F6E2063616E6E6F7420626520656D707479 PUSH1 0x50 SHL PUSH1 0x44 DUP3 ADD MSTORE PUSH1 0x64 ADD PUSH2 0x3E1 JUMP JUMPDEST PUSH1 0x2 DUP1 SLOAD SWAP1 PUSH1 0x0 PUSH2 0x728 DUP4 PUSH2 0x1D76 JUMP JUMPDEST SWAP1 SWAP2 SSTORE POP POP PUSH1 0x40 DUP1 MLOAD PUSH2 0x100 DUP2 ADD DUP3 MSTORE PUSH1 0x2 DUP1 SLOAD DUP1 DUP4 MSTORE PUSH1 0x20 DUP1 DUP5 ADD DUP10 DUP2 MSTORE CALLER DUP6 DUP8 ADD SWAP1 DUP2 MSTORE PUSH1 0x60 DUP7 ADD DUP11 DUP2 MSTORE PUSH1 0x80 DUP8 ADD DUP11 DUP2 MSTORE PUSH1 0x0 PUSH1 0xA0 DUP10 ADD DUP2 SWAP1 MSTORE PUSH1 0xC0 DUP10 ADD DUP2 SWAP1 MSTORE TIMESTAMP PUSH1 0xE0 DUP11 ADD MSTORE SWAP6 DUP7 MSTORE PUSH1 0x6 SWAP1 SWAP5 MSTORE SWAP7 SWAP1 SWAP4 KECCAK256 DUP6 MLOAD DUP2 SSTORE SWAP1 MLOAD PUSH1 0x1 DUP3 ADD SSTORE SWAP2 MLOAD SWAP3 DUP3 ADD DUP1 SLOAD PUSH1 0x1 PUSH1 0x1 PUSH1 0xA0 SHL SUB NOT AND PUSH1 0x1 PUSH1 0x1 PUSH1 0xA0 SHL SUB SWAP1 SWAP5 AND SWAP4 SWAP1 SWAP4 OR SWAP1 SWAP3 SSTORE SWAP3 MLOAD PUSH1 0x3 DUP5 ADD SSTORE MLOAD SWAP1 SWAP2 SWAP1 PUSH1 0x4 DUP3 ADD SWAP1 PUSH2 0x7C6 SWAP1 DUP3 PUSH2 0x1E19 JUMP JUMPDEST POP PUSH1 0xA0 DUP3 ADD MLOAD PUSH1 0x5 DUP3 ADD DUP1 SLOAD PUSH1 0xC0 DUP6 ADD MLOAD ISZERO ISZERO PUSH2 0x100 MUL PUSH2 0xFF00 NOT SWAP4 ISZERO ISZERO SWAP4 SWAP1 SWAP4 AND PUSH2 0xFFFF NOT SWAP1 SWAP2 AND OR SWAP2 SWAP1 SWAP2 OR SWAP1 SSTORE PUSH1 0xE0 SWAP1 SWAP2 ADD MLOAD PUSH1 0x6 SWAP1 SWAP2 ADD SSTORE CALLER PUSH1 0x0 DUP2 DUP2 MSTORE PUSH1 0x7 PUSH1 0x20 SWAP1 DUP2 MSTORE PUSH1 0x40 DUP1 DUP4 KECCAK256 PUSH1 0x2 DUP1 SLOAD DUP3 SLOAD PUSH1 0x1 DUP2 DUP2 ADD DUP6 SSTORE SWAP4 DUP8 MSTORE DUP6 DUP8 KECCAK256 ADD SSTORE DUP10 DUP6 MSTORE PUSH1 0x8 DUP5 MSTORE DUP3 DUP6 KECCAK256 DUP2 SLOAD DUP2 SLOAD SWAP4 DUP5 ADD DUP3 SSTORE SWAP1 DUP7 MSTORE SWAP4 SWAP1 SWAP5 KECCAK256 ADD SWAP2 SWAP1 SWAP2 SSTORE SWAP1 SLOAD SWAP1 MLOAD DUP7 SWAP2 SWAP1 PUSH32 0xAEC765C4D202CC54F8CE54B720323839E606826B43626764E23B3A17120CD062 SWAP1 PUSH2 0x87E SWAP1 DUP9 SWAP1 DUP9 SWAP1 PUSH2 0x1ED9 JUMP JUMPDEST PUSH1 0x40 MLOAD DUP1 SWAP2 SUB SWAP1 LOG4 POP POP POP POP JUMP JUMPDEST PUSH1 0x7 PUSH1 0x20 MSTORE DUP2 PUSH1 0x0 MSTORE PUSH1 0x40 PUSH1 0x0 KECCAK256 DUP2 DUP2 SLOAD DUP2 LT PUSH2 0x8A8 JUMPI PUSH1 0x0 DUP1 REVERT JUMPDEST SWAP1 PUSH1 0x0 MSTORE PUSH1 0x20 PUSH1 0x0 KECCAK256 ADD PUSH1 0x0 SWAP2 POP SWAP2 POP POP SLOAD DUP2 JUMP JUMPDEST PUSH1 0x1 PUSH1 0x1 PUSH1 0xA0 SHL SUB DUP2 AND PUSH1 0x0 SWAP1 DUP2 MSTORE PUSH1 0x7 PUSH1 0x20 SWAP1 DUP2 MSTORE PUSH1 0x40 DUP1 DUP4 KECCAK256 DUP1 SLOAD DUP3 MLOAD DUP2 DUP6 MUL DUP2 ADD DUP6 ADD SWAP1 SWAP4 MSTORE DUP1 DUP4 MSTORE PUSH1 0x60 SWAP5 SWAP4 DUP4 ADD DUP3 DUP3 DUP1 ISZERO PUSH2 0x91C JUMPI PUSH1 0x20 MUL DUP3 ADD SWAP2 SWAP1 PUSH1 0x0 MSTORE PUSH1 0x20 PUSH1 0x0 KECCAK256 SWAP1 JUMPDEST DUP2 SLOAD DUP2 MSTORE PUSH1 0x20 ADD SWAP1 PUSH1 0x1 ADD SWAP1 DUP1 DUP4 GT PUSH2 0x908 JUMPI JUMPDEST POP POP POP POP POP SWAP1 POP PUSH1 0x0 DUP2 MLOAD PUSH8 0xFFFFFFFFFFFFFFFF DUP2 GT ISZERO PUSH2 0x93F JUMPI PUSH2 0x93F PUSH2 0x197E JUMP JUMPDEST PUSH1 0x40 MLOAD SWAP1 DUP1 DUP3 MSTORE DUP1 PUSH1 0x20 MUL PUSH1 0x20 ADD DUP3 ADD PUSH1 0x40 MSTORE DUP1 ISZERO PUSH2 0x978 JUMPI DUP2 PUSH1 0x20 ADD JUMPDEST PUSH2 0x965 PUSH2 0x190A JUMP JUMPDEST DUP2 MSTORE PUSH1 0x20 ADD SWAP1 PUSH1 0x1 SWAP1 SUB SWAP1 DUP2 PUSH2 0x95D JUMPI SWAP1 POP JUMPDEST POP SWAP1 POP PUSH1 0x0 JUMPDEST DUP3 MLOAD DUP2 LT ISZERO PUSH2 0xAEF JUMPI PUSH1 0x6 PUSH1 0x0 DUP5 DUP4 DUP2 MLOAD DUP2 LT PUSH2 0x99D JUMPI PUSH2 0x99D PUSH2 0x1EF2 JUMP JUMPDEST PUSH1 0x20 MUL PUSH1 0x20 ADD ADD MLOAD DUP2 MSTORE PUSH1 0x20 ADD SWAP1 DUP2 MSTORE PUSH1 0x20 ADD PUSH1 0x0 KECCAK256 PUSH1 0x40 MLOAD DUP1 PUSH2 0x100 ADD PUSH1 0x40 MSTORE SWAP1 DUP2 PUSH1 0x0 DUP3 ADD SLOAD DUP2 MSTORE PUSH1 0x20 ADD PUSH1 0x1 DUP3 ADD SLOAD DUP2 MSTORE PUSH1 0x20 ADD PUSH1 0x2 DUP3 ADD PUSH1 0x0 SWAP1 SLOAD SWAP1 PUSH2 0x100 EXP SWAP1 DIV PUSH1 0x1 PUSH1 0x1 PUSH1 0xA0 SHL SUB AND PUSH1 0x1 PUSH1 0x1 PUSH1 0xA0 SHL SUB AND PUSH1 0x1 PUSH1 0x1 PUSH1 0xA0 SHL SUB AND DUP2 MSTORE PUSH1 0x20 ADD PUSH1 0x3 DUP3 ADD SLOAD DUP2 MSTORE PUSH1 0x20 ADD PUSH1 0x4 DUP3 ADD DUP1 SLOAD PUSH2 0xA1C SWAP1 PUSH2 0x1D8F JUMP JUMPDEST DUP1 PUSH1 0x1F ADD PUSH1 0x20 DUP1 SWAP2 DIV MUL PUSH1 0x20 ADD PUSH1 0x40 MLOAD SWAP1 DUP2 ADD PUSH1 0x40 MSTORE DUP1 SWAP3 SWAP2 SWAP1 DUP2 DUP2 MSTORE PUSH1 0x20 ADD DUP3 DUP1 SLOAD PUSH2 0xA48 SWAP1 PUSH2 0x1D8F JUMP JUMPDEST DUP1 ISZERO PUSH2 0xA95 JUMPI DUP1 PUSH1 0x1F LT PUSH2 0xA6A JUMPI PUSH2 0x100 DUP1 DUP4 SLOAD DIV MUL DUP4 MSTORE SWAP2 PUSH1 0x20 ADD SWAP2 PUSH2 0xA95 JUMP JUMPDEST DUP3 ADD SWAP2 SWAP1 PUSH1 0x0 MSTORE PUSH1 0x20 PUSH1 0x0 KECCAK256 SWAP1 JUMPDEST DUP2 SLOAD DUP2 MSTORE SWAP1 PUSH1 0x1 ADD SWAP1 PUSH1 0x20 ADD DUP1 DUP4 GT PUSH2 0xA78 JUMPI DUP3 SWAP1 SUB PUSH1 0x1F AND DUP3 ADD SWAP2 JUMPDEST POP POP POP SWAP2 DUP4 MSTORE POP POP PUSH1 0x5 DUP3 ADD SLOAD PUSH1 0xFF DUP1 DUP3 AND ISZERO ISZERO PUSH1 0x20 DUP5 ADD MSTORE PUSH2 0x100 SWAP1 SWAP2 DIV AND ISZERO ISZERO PUSH1 0x40 DUP3 ADD MSTORE PUSH1 0x6 SWAP1 SWAP2 ADD SLOAD PUSH1 0x60 SWAP1 SWAP2 ADD MSTORE DUP3 MLOAD DUP4 SWAP1 DUP4 SWAP1 DUP2 LT PUSH2 0xADC JUMPI PUSH2 0xADC PUSH2 0x1EF2 JUMP JUMPDEST PUSH1 0x20 SWAP1 DUP2 MUL SWAP2 SWAP1 SWAP2 ADD ADD MSTORE PUSH1 0x1 ADD PUSH2 0x97E JUMP JUMPDEST POP SWAP4 SWAP3 POP POP POP JUMP JUMPDEST PUSH1 0x9 PUSH1 0x20 MSTORE DUP2 PUSH1 0x0 MSTORE PUSH1 0x40 PUSH1 0x0 KECCAK256 DUP2 DUP2 SLOAD DUP2 LT PUSH2 0xB13 JUMPI PUSH1 0x0 DUP1 REVERT JUMPDEST PUSH1 0x0 SWAP2 DUP3 MSTORE PUSH1 0x20 SWAP1 SWAP2 KECCAK256 ADD SLOAD PUSH1 0x1 PUSH1 0x1 PUSH1 0xA0 SHL SUB AND SWAP2 POP DUP3 SWAP1 POP JUMP JUMPDEST PUSH1 0x0 DUP2 DUP2 MSTORE PUSH1 0x6 PUSH1 0x20 MSTORE PUSH1 0x40 DUP2 KECCAK256 DUP1 SLOAD SWAP1 SWAP2 SUB PUSH2 0xB87 JUMPI PUSH1 0x40 MLOAD PUSH3 0x461BCD PUSH1 0xE5 SHL DUP2 MSTORE PUSH1 0x20 PUSH1 0x4 DUP3 ADD MSTORE PUSH1 0x16 PUSH1 0x24 DUP3 ADD MSTORE PUSH22 0x14995C5D595CDD08191BD95CC81B9BDD08195E1A5CDD PUSH1 0x52 SHL PUSH1 0x44 DUP3 ADD MSTORE PUSH1 0x64 ADD PUSH2 0x3E1 JUMP JUMPDEST PUSH1 0x5 DUP2 ADD SLOAD PUSH1 0xFF AND ISZERO PUSH2 0xBD8 JUMPI PUSH1 0x40 MLOAD PUSH3 0x461BCD PUSH1 0xE5 SHL DUP2 MSTORE PUSH1 0x20 PUSH1 0x4 DUP3 ADD MSTORE PUSH1 0x19 PUSH1 0x24 DUP3 ADD MSTORE PUSH25 0x14995C5D595CDD08185B1C9958591E481C1C9BD8D95CDCD959 PUSH1 0x3A SHL PUSH1 0x44 DUP3 ADD MSTORE PUSH1 0x64 ADD PUSH2 0x3E1 JUMP JUMPDEST PUSH1 0x1 DUP1 DUP3 ADD SLOAD PUSH1 0x0 SWAP1 DUP2 MSTORE PUSH1 0x5 PUSH1 0x20 MSTORE PUSH1 0x40 SWAP1 KECCAK256 ADD SLOAD PUSH1 0x1 PUSH1 0x1 PUSH1 0xA0 SHL SUB AND CALLER EQ PUSH2 0xC36 JUMPI PUSH1 0x40 MLOAD PUSH3 0x461BCD PUSH1 0xE5 SHL DUP2 MSTORE PUSH1 0x20 PUSH1 0x4 DUP3 ADD MSTORE PUSH1 0xE PUSH1 0x24 DUP3 ADD MSTORE PUSH14 0x139BDD08185D5D1A1BDC9A5E9959 PUSH1 0x92 SHL PUSH1 0x44 DUP3 ADD MSTORE PUSH1 0x64 ADD PUSH2 0x3E1 JUMP JUMPDEST PUSH1 0x5 DUP2 ADD DUP1 SLOAD PUSH2 0xFFFF NOT AND PUSH1 0x1 OR SWAP1 SSTORE PUSH1 0x2 DUP2 ADD SLOAD PUSH1 0x40 MLOAD PUSH1 0x1 PUSH1 0x1 PUSH1 0xA0 SHL SUB SWAP1 SWAP2 AND SWAP1 DUP4 SWAP1 PUSH32 0xCEDC2272AA92F5AF6B5D9FE71D06813EC5BC5CB1E7245AA42AB5BB96DDE86C72 SWAP1 PUSH1 0x0 SWAP1 LOG3 POP POP JUMP JUMPDEST PUSH1 0x8 PUSH1 0x20 MSTORE DUP2 PUSH1 0x0 MSTORE PUSH1 0x40 PUSH1 0x0 KECCAK256 DUP2 DUP2 SLOAD DUP2 LT PUSH2 0x8A8 JUMPI PUSH1 0x0 DUP1 REVERT JUMPDEST PUSH1 0x0 DUP2 MLOAD GT PUSH2 0xCEA JUMPI PUSH1 0x40 MLOAD PUSH3 0x461BCD PUSH1 0xE5 SHL DUP2 MSTORE PUSH1 0x20 PUSH1 0x4 DUP3 ADD MSTORE PUSH1 0x14 PUSH1 0x24 DUP3 ADD MSTORE PUSH20 0x4E616D652063616E6E6F7420626520656D707479 PUSH1 0x60 SHL PUSH1 0x44 DUP3 ADD MSTORE PUSH1 0x64 ADD PUSH2 0x3E1 JUMP JUMPDEST PUSH1 0x1 DUP1 SLOAD SWAP1 PUSH1 0x0 PUSH2 0xCFA DUP4 PUSH2 0x1D76 JUMP JUMPDEST SWAP1 SWAP2 SSTORE POP POP PUSH1 0x40 DUP1 MLOAD PUSH1 0x80 DUP2 ADD DUP3 MSTORE DUP3 DUP2 MSTORE CALLER PUSH1 0x20 DUP1 DUP4 ADD SWAP2 SWAP1 SWAP2 MSTORE PUSH1 0x0 DUP3 DUP5 ADD DUP2 SWAP1 MSTORE PUSH1 0x1 PUSH1 0x60 DUP5 ADD DUP2 SWAP1 MSTORE SLOAD DUP2 MSTORE PUSH1 0x5 SWAP1 SWAP2 MSTORE SWAP2 SWAP1 SWAP2 KECCAK256 DUP2 MLOAD DUP2 SWAP1 PUSH2 0xD41 SWAP1 DUP3 PUSH2 0x1E19 JUMP JUMPDEST POP PUSH1 0x20 DUP3 ADD MLOAD PUSH1 0x1 DUP3 DUP2 ADD DUP1 SLOAD PUSH1 0x1 PUSH1 0x1 PUSH1 0xA0 SHL SUB NOT AND PUSH1 0x1 PUSH1 0x1 PUSH1 0xA0 SHL SUB SWAP1 SWAP4 AND SWAP3 SWAP1 SWAP3 OR SWAP1 SWAP2 SSTORE PUSH1 0x40 DUP1 DUP5 ADD MLOAD PUSH1 0x2 DUP5 ADD SSTORE PUSH1 0x60 SWAP1 SWAP4 ADD MLOAD PUSH1 0x3 SWAP1 SWAP3 ADD DUP1 SLOAD PUSH1 0xFF NOT AND SWAP3 ISZERO ISZERO SWAP3 SWAP1 SWAP3 OR SWAP1 SWAP2 SSTORE SLOAD SWAP1 MLOAD PUSH32 0x61B9329E03F6BA47AC920BF1AF9A927185566970B4712DAB1FF01E8D977D9AD0 SWAP1 PUSH2 0xDC2 SWAP1 DUP5 SWAP1 CALLER SWAP1 PUSH2 0x1F08 JUMP JUMPDEST PUSH1 0x40 MLOAD DUP1 SWAP2 SUB SWAP1 LOG2 POP JUMP JUMPDEST PUSH1 0x0 DUP2 DUP2 MSTORE PUSH1 0x8 PUSH1 0x20 SWAP1 DUP2 MSTORE PUSH1 0x40 DUP1 DUP4 KECCAK256 DUP1 SLOAD DUP3 MLOAD DUP2 DUP6 MUL DUP2 ADD DUP6 ADD SWAP1 SWAP4 MSTORE DUP1 DUP4 MSTORE PUSH1 0x60 SWAP5 SWAP4 DUP4 ADD DUP3 DUP3 DUP1 ISZERO PUSH2 0xE22 JUMPI PUSH1 0x20 MUL DUP3 ADD SWAP2 SWAP1 PUSH1 0x0 MSTORE PUSH1 0x20 PUSH1 0x0 KECCAK256 SWAP1 JUMPDEST DUP2 SLOAD DUP2 MSTORE PUSH1 0x20 ADD SWAP1 PUSH1 0x1 ADD SWAP1 DUP1 DUP4 GT PUSH2 0xE0E JUMPI JUMPDEST POP POP POP POP POP SWAP1 POP PUSH1 0x0 DUP2 MLOAD PUSH8 0xFFFFFFFFFFFFFFFF DUP2 GT ISZERO PUSH2 0xE45 JUMPI PUSH2 0xE45 PUSH2 0x197E JUMP JUMPDEST PUSH1 0x40 MLOAD SWAP1 DUP1 DUP3 MSTORE DUP1 PUSH1 0x20 MUL PUSH1 0x20 ADD DUP3 ADD PUSH1 0x40 MSTORE DUP1 ISZERO PUSH2 0xE7E JUMPI DUP2 PUSH1 0x20 ADD JUMPDEST PUSH2 0xE6B PUSH2 0x190A JUMP JUMPDEST DUP2 MSTORE PUSH1 0x20 ADD SWAP1 PUSH1 0x1 SWAP1 SUB SWAP1 DUP2 PUSH2 0xE63 JUMPI SWAP1 POP JUMPDEST POP SWAP1 POP PUSH1 0x0 JUMPDEST DUP3 MLOAD DUP2 LT ISZERO PUSH2 0xAEF JUMPI PUSH1 0x6 PUSH1 0x0 DUP5 DUP4 DUP2 MLOAD DUP2 LT PUSH2 0xEA3 JUMPI PUSH2 0xEA3 PUSH2 0x1EF2 JUMP JUMPDEST PUSH1 0x20 MUL PUSH1 0x20 ADD ADD MLOAD DUP2 MSTORE PUSH1 0x20 ADD SWAP1 DUP2 MSTORE PUSH1 0x20 ADD PUSH1 0x0 KECCAK256 PUSH1 0x40 MLOAD DUP1 PUSH2 0x100 ADD PUSH1 0x40 MSTORE SWAP1 DUP2 PUSH1 0x0 DUP3 ADD SLOAD DUP2 MSTORE PUSH1 0x20 ADD PUSH1 0x1 DUP3 ADD SLOAD DUP2 MSTORE PUSH1 0x20 ADD PUSH1 0x2 DUP3 ADD PUSH1 0x0 SWAP1 SLOAD SWAP1 PUSH2 0x100 EXP SWAP1 DIV PUSH1 0x1 PUSH1 0x1 PUSH1 0xA0 SHL SUB AND PUSH1 0x1 PUSH1 0x1 PUSH1 0xA0 SHL SUB AND PUSH1 0x1 PUSH1 0x1 PUSH1 0xA0 SHL SUB AND DUP2 MSTORE PUSH1 0x20 ADD PUSH1 0x3 DUP3 ADD SLOAD DUP2 MSTORE PUSH1 0x20 ADD PUSH1 0x4 DUP3 ADD DUP1 SLOAD PUSH2 0xF22 SWAP1 PUSH2 0x1D8F JUMP JUMPDEST DUP1 PUSH1 0x1F ADD PUSH1 0x20 DUP1 SWAP2 DIV MUL PUSH1 0x20 ADD PUSH1 0x40 MLOAD SWAP1 DUP2 ADD PUSH1 0x40 MSTORE DUP1 SWAP3 SWAP2 SWAP1 DUP2 DUP2 MSTORE PUSH1 0x20 ADD DUP3 DUP1 SLOAD PUSH2 0xF4E SWAP1 PUSH2 0x1D8F JUMP JUMPDEST DUP1 ISZERO PUSH2 0xF9B JUMPI DUP1 PUSH1 0x1F LT PUSH2 0xF70 JUMPI PUSH2 0x100 DUP1 DUP4 SLOAD DIV MUL DUP4 MSTORE SWAP2 PUSH1 0x20 ADD SWAP2 PUSH2 0xF9B JUMP JUMPDEST DUP3 ADD SWAP2 SWAP1 PUSH1 0x0 MSTORE PUSH1 0x20 PUSH1 0x0 KECCAK256 SWAP1 JUMPDEST DUP2 SLOAD DUP2 MSTORE SWAP1 PUSH1 0x1 ADD SWAP1 PUSH1 0x20 ADD DUP1 DUP4 GT PUSH2 0xF7E JUMPI DUP3 SWAP1 SUB PUSH1 0x1F AND DUP3 ADD SWAP2 JUMPDEST POP POP POP SWAP2 DUP4 MSTORE POP POP PUSH1 0x5 DUP3 ADD SLOAD PUSH1 0xFF DUP1 DUP3 AND ISZERO ISZERO PUSH1 0x20 DUP5 ADD MSTORE PUSH2 0x100 SWAP1 SWAP2 DIV AND ISZERO ISZERO PUSH1 0x40 DUP3 ADD MSTORE PUSH1 0x6 SWAP1 SWAP2 ADD SLOAD PUSH1 0x60 SWAP1 SWAP2 ADD MSTORE DUP3 MLOAD DUP4 SWAP1 DUP4 SWAP1 DUP2 LT PUSH2 0xFE2 JUMPI PUSH2 0xFE2 PUSH2 0x1EF2 JUMP JUMPDEST PUSH1 0x20 SWAP1 DUP2 MUL SWAP2 SWAP1 SWAP2 ADD ADD MSTORE PUSH1 0x1 ADD PUSH2 0xE84 JUMP JUMPDEST PUSH1 0x6 PUSH1 0x20 MSTORE PUSH1 0x0 SWAP1 DUP2 MSTORE PUSH1 0x40 SWAP1 KECCAK256 DUP1 SLOAD PUSH1 0x1 DUP3 ADD SLOAD PUSH1 0x2 DUP4 ADD SLOAD PUSH1 0x3 DUP5 ADD SLOAD PUSH1 0x4 DUP6 ADD DUP1 SLOAD SWAP5 SWAP6 SWAP4 SWAP5 PUSH1 0x1 PUSH1 0x1 PUSH1 0xA0 SHL SUB SWAP1 SWAP4 AND SWAP4 SWAP2 SWAP3 PUSH2 0x1035 SWAP1 PUSH2 0x1D8F JUMP JUMPDEST DUP1 PUSH1 0x1F ADD PUSH1 0x20 DUP1 SWAP2 DIV MUL PUSH1 0x20 ADD PUSH1 0x40 MLOAD SWAP1 DUP2 ADD PUSH1 0x40 MSTORE DUP1 SWAP3 SWAP2 SWAP1 DUP2 DUP2 MSTORE PUSH1 0x20 ADD DUP3 DUP1 SLOAD PUSH2 0x1061 SWAP1 PUSH2 0x1D8F JUMP JUMPDEST DUP1 ISZERO PUSH2 0x10AE JUMPI DUP1 PUSH1 0x1F LT PUSH2 0x1083 JUMPI PUSH2 0x100 DUP1 DUP4 SLOAD DIV MUL DUP4 MSTORE SWAP2 PUSH1 0x20 ADD SWAP2 PUSH2 0x10AE JUMP JUMPDEST DUP3 ADD SWAP2 SWAP1 PUSH1 0x0 MSTORE PUSH1 0x20 PUSH1 0x0 KECCAK256 SWAP1 JUMPDEST DUP2 SLOAD DUP2 MSTORE SWAP1 PUSH1 0x1 ADD SWAP1 PUSH1 0x20 ADD DUP1 DUP4 GT PUSH2 0x1091 JUMPI DUP3 SWAP1 SUB PUSH1 0x1F AND DUP3 ADD SWAP2 JUMPDEST POP POP POP POP PUSH1 0x5 DUP4 ADD SLOAD PUSH1 0x6 SWAP1 SWAP4 ADD SLOAD SWAP2 SWAP3 PUSH1 0xFF DUP1 DUP3 AND SWAP4 PUSH2 0x100 SWAP1 SWAP3 DIV AND SWAP2 POP DUP9 JUMP JUMPDEST PUSH1 0x5 PUSH1 0x20 MSTORE PUSH1 0x0 SWAP1 DUP2 MSTORE PUSH1 0x40 SWAP1 KECCAK256 DUP1 SLOAD DUP2 SWAP1 PUSH2 0x10EC SWAP1 PUSH2 0x1D8F JUMP JUMPDEST DUP1 PUSH1 0x1F ADD PUSH1 0x20 DUP1 SWAP2 DIV MUL PUSH1 0x20 ADD PUSH1 0x40 MLOAD SWAP1 DUP2 ADD PUSH1 0x40 MSTORE DUP1 SWAP3 SWAP2 SWAP1 DUP2 DUP2 MSTORE PUSH1 0x20 ADD DUP3 DUP1 SLOAD PUSH2 0x1118 SWAP1 PUSH2 0x1D8F JUMP JUMPDEST DUP1 ISZERO PUSH2 0x1165 JUMPI DUP1 PUSH1 0x1F LT PUSH2 0x113A JUMPI PUSH2 0x100 DUP1 DUP4 SLOAD DIV MUL DUP4 MSTORE SWAP2 PUSH1 0x20 ADD SWAP2 PUSH2 0x1165 JUMP JUMPDEST DUP3 ADD SWAP2 SWAP1 PUSH1 0x0 MSTORE PUSH1 0x20 PUSH1 0x0 KECCAK256 SWAP1 JUMPDEST DUP2 SLOAD DUP2 MSTORE SWAP1 PUSH1 0x1 ADD SWAP1 PUSH1 0x20 ADD DUP1 DUP4 GT PUSH2 0x1148 JUMPI DUP3 SWAP1 SUB PUSH1 0x1F AND DUP3 ADD SWAP2 JUMPDEST POP POP POP POP PUSH1 0x1 DUP4 ADD SLOAD PUSH1 0x2 DUP5 ADD SLOAD PUSH1 0x3 SWAP1 SWAP5 ADD SLOAD SWAP3 SWAP4 PUSH1 0x1 PUSH1 0x1 PUSH1 0xA0 SHL SUB SWAP1 SWAP2 AND SWAP3 SWAP1 SWAP2 POP PUSH1 0xFF AND DUP5 JUMP JUMPDEST PUSH1 0x0 DUP2 DUP2 MSTORE PUSH1 0x8 PUSH1 0x20 SWAP1 DUP2 MSTORE PUSH1 0x40 DUP1 DUP4 KECCAK256 DUP1 SLOAD DUP3 MLOAD DUP2 DUP6 MUL DUP2 ADD DUP6 ADD SWAP1 SWAP4 MSTORE DUP1 DUP4 MSTORE PUSH1 0x60 SWAP5 SWAP4 DUP4 ADD DUP3 DUP3 DUP1 ISZERO PUSH2 0x11E5 JUMPI PUSH1 0x20 MUL DUP3 ADD SWAP2 SWAP1 PUSH1 0x0 MSTORE PUSH1 0x20 PUSH1 0x0 KECCAK256 SWAP1 JUMPDEST DUP2 SLOAD DUP2 MSTORE PUSH1 0x20 ADD SWAP1 PUSH1 0x1 ADD SWAP1 DUP1 DUP4 GT PUSH2 0x11D1 JUMPI JUMPDEST POP POP POP POP POP SWAP1 POP PUSH1 0x0 DUP1 JUMPDEST DUP3 MLOAD DUP2 LT ISZERO PUSH2 0x124A JUMPI PUSH1 0x6 PUSH1 0x0 DUP5 DUP4 DUP2 MLOAD DUP2 LT PUSH2 0x120F JUMPI PUSH2 0x120F PUSH2 0x1EF2 JUMP JUMPDEST PUSH1 0x20 SWAP1 DUP2 MUL SWAP2 SWAP1 SWAP2 ADD DUP2 ADD MLOAD DUP3 MSTORE DUP2 ADD SWAP2 SWAP1 SWAP2 MSTORE PUSH1 0x40 ADD PUSH1 0x0 KECCAK256 PUSH1 0x5 ADD SLOAD PUSH1 0xFF AND PUSH2 0x1242 JUMPI DUP2 PUSH2 0x123E DUP2 PUSH2 0x1D76 JUMP JUMPDEST SWAP3 POP POP JUMPDEST PUSH1 0x1 ADD PUSH2 0x11F0 JUMP JUMPDEST POP PUSH1 0x0 DUP2 PUSH8 0xFFFFFFFFFFFFFFFF DUP2 GT ISZERO PUSH2 0x1266 JUMPI PUSH2 0x1266 PUSH2 0x197E JUMP JUMPDEST PUSH1 0x40 MLOAD SWAP1 DUP1 DUP3 MSTORE DUP1 PUSH1 0x20 MUL PUSH1 0x20 ADD DUP3 ADD PUSH1 0x40 MSTORE DUP1 ISZERO PUSH2 0x129F JUMPI DUP2 PUSH1 0x20 ADD JUMPDEST PUSH2 0x128C PUSH2 0x190A JUMP JUMPDEST DUP2 MSTORE PUSH1 0x20 ADD SWAP1 PUSH1 0x1 SWAP1 SUB SWAP1 DUP2 PUSH2 0x1284 JUMPI SWAP1 POP JUMPDEST POP SWAP1 POP PUSH1 0x0 DUP1 JUMPDEST DUP5 MLOAD DUP2 LT ISZERO PUSH2 0x1461 JUMPI PUSH1 0x6 PUSH1 0x0 DUP7 DUP4 DUP2 MLOAD DUP2 LT PUSH2 0x12C5 JUMPI PUSH2 0x12C5 PUSH2 0x1EF2 JUMP JUMPDEST PUSH1 0x20 SWAP1 DUP2 MUL SWAP2 SWAP1 SWAP2 ADD DUP2 ADD MLOAD DUP3 MSTORE DUP2 ADD SWAP2 SWAP1 SWAP2 MSTORE PUSH1 0x40 ADD PUSH1 0x0 KECCAK256 PUSH1 0x5 ADD SLOAD PUSH1 0xFF AND PUSH2 0x1459 JUMPI PUSH1 0x6 PUSH1 0x0 DUP7 DUP4 DUP2 MLOAD DUP2 LT PUSH2 0x1300 JUMPI PUSH2 0x1300 PUSH2 0x1EF2 JUMP JUMPDEST PUSH1 0x20 MUL PUSH1 0x20 ADD ADD MLOAD DUP2 MSTORE PUSH1 0x20 ADD SWAP1 DUP2 MSTORE PUSH1 0x20 ADD PUSH1 0x0 KECCAK256 PUSH1 0x40 MLOAD DUP1 PUSH2 0x100 ADD PUSH1 0x40 MSTORE SWAP1 DUP2 PUSH1 0x0 DUP3 ADD SLOAD DUP2 MSTORE PUSH1 0x20 ADD PUSH1 0x1 DUP3 ADD SLOAD DUP2 MSTORE PUSH1 0x20 ADD PUSH1 0x2 DUP3 ADD PUSH1 0x0 SWAP1 SLOAD SWAP1 PUSH2 0x100 EXP SWAP1 DIV PUSH1 0x1 PUSH1 0x1 PUSH1 0xA0 SHL SUB AND PUSH1 0x1 PUSH1 0x1 PUSH1 0xA0 SHL SUB AND PUSH1 0x1 PUSH1 0x1 PUSH1 0xA0 SHL SUB AND DUP2 MSTORE PUSH1 0x20 ADD PUSH1 0x3 DUP3 ADD SLOAD DUP2 MSTORE PUSH1 0x20 ADD PUSH1 0x4 DUP3 ADD DUP1 SLOAD PUSH2 0x137F SWAP1 PUSH2 0x1D8F JUMP JUMPDEST DUP1 PUSH1 0x1F ADD PUSH1 0x20 DUP1 SWAP2 DIV MUL PUSH1 0x20 ADD PUSH1 0x40 MLOAD SWAP1 DUP2 ADD PUSH1 0x40 MSTORE DUP1 SWAP3 SWAP2 SWAP1 DUP2 DUP2 MSTORE PUSH1 0x20 ADD DUP3 DUP1 SLOAD PUSH2 0x13AB SWAP1 PUSH2 0x1D8F JUMP JUMPDEST DUP1 ISZERO PUSH2 0x13F8 JUMPI DUP1 PUSH1 0x1F LT PUSH2 0x13CD JUMPI PUSH2 0x100 DUP1 DUP4 SLOAD DIV MUL DUP4 MSTORE SWAP2 PUSH1 0x20 ADD SWAP2 PUSH2 0x13F8 JUMP JUMPDEST DUP3 ADD SWAP2 SWAP1 PUSH1 0x0 MSTORE PUSH1 0x20 PUSH1 0x0 KECCAK256 SWAP1 JUMPDEST DUP2 SLOAD DUP2 MSTORE SWAP1 PUSH1 0x1 ADD SWAP1 PUSH1 0x20 ADD DUP1 DUP4 GT PUSH2 0x13DB JUMPI DUP3 SWAP1 SUB PUSH1 0x1F AND DUP3 ADD SWAP2 JUMPDEST POP POP POP SWAP2 DUP4 MSTORE POP POP PUSH1 0x5 DUP3 ADD SLOAD PUSH1 0xFF DUP1 DUP3 AND ISZERO ISZERO PUSH1 0x20 DUP5 ADD MSTORE PUSH2 0x100 SWAP1 SWAP2 DIV AND ISZERO ISZERO PUSH1 0x40 DUP3 ADD MSTORE PUSH1 0x6 SWAP1 SWAP2 ADD SLOAD PUSH1 0x60 SWAP1 SWAP2 ADD MSTORE DUP4 MLOAD DUP5 SWAP1 DUP5 SWAP1 DUP2 LT PUSH2 0x143F JUMPI PUSH2 0x143F PUSH2 0x1EF2 JUMP JUMPDEST PUSH1 0x20 MUL PUSH1 0x20 ADD ADD DUP2 SWAP1 MSTORE POP DUP2 DUP1 PUSH2 0x1455 SWAP1 PUSH2 0x1D76 JUMP JUMPDEST SWAP3 POP POP JUMPDEST PUSH1 0x1 ADD PUSH2 0x12A6 JUMP JUMPDEST POP SWAP1 SWAP6 SWAP5 POP POP POP POP POP JUMP JUMPDEST PUSH1 0x0 DUP2 DUP2 MSTORE PUSH1 0x5 PUSH1 0x20 SWAP1 DUP2 MSTORE PUSH1 0x40 DUP1 DUP4 KECCAK256 PUSH1 0x1 DUP2 ADD SLOAD PUSH1 0x2 DUP3 ADD SLOAD PUSH1 0x3 DUP4 ADD SLOAD PUSH1 0x9 DUP7 MSTORE DUP5 DUP8 KECCAK256 SLOAD PUSH1 0x8 SWAP1 SWAP7 MSTORE SWAP4 DUP7 KECCAK256 SLOAD DUP4 SLOAD PUSH1 0x60 SWAP8 SWAP7 DUP8 SWAP7 DUP8 SWAP7 DUP8 SWAP7 DUP8 SWAP7 SWAP2 SWAP6 DUP7 SWAP6 PUSH1 0x1 PUSH1 0x1 PUSH1 0xA0 SHL SUB SWAP1 SWAP3 AND SWAP5 SWAP3 SWAP4 PUSH1 0xFF AND SWAP3 SWAP2 DUP7 SWAP1 PUSH2 0x14CD SWAP1 PUSH2 0x1D8F JUMP JUMPDEST DUP1 PUSH1 0x1F ADD PUSH1 0x20 DUP1 SWAP2 DIV MUL PUSH1 0x20 ADD PUSH1 0x40 MLOAD SWAP1 DUP2 ADD PUSH1 0x40 MSTORE DUP1 SWAP3 SWAP2 SWAP1 DUP2 DUP2 MSTORE PUSH1 0x20 ADD DUP3 DUP1 SLOAD PUSH2 0x14F9 SWAP1 PUSH2 0x1D8F JUMP JUMPDEST DUP1 ISZERO PUSH2 0x1546 JUMPI DUP1 PUSH1 0x1F LT PUSH2 0x151B JUMPI PUSH2 0x100 DUP1 DUP4 SLOAD DIV MUL DUP4 MSTORE SWAP2 PUSH1 0x20 ADD SWAP2 PUSH2 0x1546 JUMP JUMPDEST DUP3 ADD SWAP2 SWAP1 PUSH1 0x0 MSTORE PUSH1 0x20 PUSH1 0x0 KECCAK256 SWAP1 JUMPDEST DUP2 SLOAD DUP2 MSTORE SWAP1 PUSH1 0x1 ADD SWAP1 PUSH1 0x20 ADD DUP1 DUP4 GT PUSH2 0x1529 JUMPI DUP3 SWAP1 SUB PUSH1 0x1F AND DUP3 ADD SWAP2 JUMPDEST POP POP POP POP POP SWAP6 POP SWAP7 POP SWAP7 POP SWAP7 POP SWAP7 POP SWAP7 POP SWAP7 POP POP SWAP2 SWAP4 SWAP6 POP SWAP2 SWAP4 SWAP6 JUMP JUMPDEST PUSH2 0x156B PUSH2 0x17CC JUMP JUMPDEST PUSH1 0x0 DUP2 DUP2 MSTORE PUSH1 0x6 PUSH1 0x20 MSTORE PUSH1 0x40 DUP2 KECCAK256 DUP1 SLOAD SWAP1 SWAP2 SUB PUSH2 0x15C3 JUMPI PUSH1 0x40 MLOAD PUSH3 0x461BCD PUSH1 0xE5 SHL DUP2 MSTORE PUSH1 0x20 PUSH1 0x4 DUP3 ADD MSTORE PUSH1 0x16 PUSH1 0x24 DUP3 ADD MSTORE PUSH22 0x14995C5D595CDD08191BD95CC81B9BDD08195E1A5CDD PUSH1 0x52 SHL PUSH1 0x44 DUP3 ADD MSTORE PUSH1 0x64 ADD PUSH2 0x3E1 JUMP JUMPDEST PUSH1 0x5 DUP2 ADD SLOAD PUSH1 0xFF AND ISZERO PUSH2 0x1614 JUMPI PUSH1 0x40 MLOAD PUSH3 0x461BCD PUSH1 0xE5 SHL DUP2 MSTORE PUSH1 0x20 PUSH1 0x4 DUP3 ADD MSTORE PUSH1 0x19 PUSH1 0x24 DUP3 ADD MSTORE PUSH25 0x14995C5D595CDD08185B1C9958591E481C1C9BD8D95CDCD959 PUSH1 0x3A SHL PUSH1 0x44 DUP3 ADD MSTORE PUSH1 0x64 ADD PUSH2 0x3E1 JUMP JUMPDEST PUSH1 0x1 DUP1 DUP3 ADD SLOAD PUSH1 0x0 SWAP1 DUP2 MSTORE PUSH1 0x5 PUSH1 0x20 MSTORE PUSH1 0x40 SWAP1 KECCAK256 ADD SLOAD PUSH1 0x1 PUSH1 0x1 PUSH1 0xA0 SHL SUB AND CALLER EQ PUSH2 0x1672 JUMPI PUSH1 0x40 MLOAD PUSH3 0x461BCD PUSH1 0xE5 SHL DUP2 MSTORE PUSH1 0x20 PUSH1 0x4 DUP3 ADD MSTORE PUSH1 0xE PUSH1 0x24 DUP3 ADD MSTORE PUSH14 0x139BDD08185D5D1A1BDC9A5E9959 PUSH1 0x92 SHL PUSH1 0x44 DUP3 ADD MSTORE PUSH1 0x64 ADD PUSH2 0x3E1 JUMP JUMPDEST PUSH1 0x3 DUP2 ADD SLOAD PUSH1 0x1 DUP3 ADD SLOAD PUSH1 0x0 SWAP1 DUP2 MSTORE PUSH1 0x5 PUSH1 0x20 MSTORE PUSH1 0x40 SWAP1 KECCAK256 PUSH1 0x2 ADD SLOAD LT ISZERO PUSH2 0x16D1 JUMPI PUSH1 0x40 MLOAD PUSH3 0x461BCD PUSH1 0xE5 SHL DUP2 MSTORE PUSH1 0x20 PUSH1 0x4 DUP3 ADD MSTORE PUSH1 0x12 PUSH1 0x24 DUP3 ADD MSTORE PUSH18 0x496E73756666696369656E742066756E6473 PUSH1 0x70 SHL PUSH1 0x44 DUP3 ADD MSTORE PUSH1 0x64 ADD PUSH2 0x3E1 JUMP JUMPDEST PUSH1 0x5 DUP2 DUP2 ADD DUP1 SLOAD PUSH2 0xFFFF NOT AND PUSH2 0x101 OR SWAP1 SSTORE PUSH1 0x3 DUP3 ADD SLOAD PUSH1 0x1 DUP4 ADD SLOAD PUSH1 0x0 SWAP1 DUP2 MSTORE PUSH1 0x20 SWAP3 SWAP1 SWAP3 MSTORE PUSH1 0x40 DUP3 KECCAK256 PUSH1 0x2 ADD DUP1 SLOAD SWAP2 SWAP3 SWAP1 SWAP2 PUSH2 0x1710 SWAP1 DUP5 SWAP1 PUSH2 0x1F32 JUMP JUMPDEST SWAP1 SWAP2 SSTORE POP POP PUSH1 0x3 DUP2 ADD SLOAD PUSH1 0x4 DUP1 SLOAD PUSH1 0x0 SWAP1 PUSH2 0x172C SWAP1 DUP5 SWAP1 PUSH2 0x1D5D JUMP JUMPDEST SWAP1 SWAP2 SSTORE POP POP PUSH1 0x2 DUP2 ADD SLOAD PUSH1 0x3 DUP3 ADD SLOAD PUSH2 0x1773 SWAP2 PUSH1 0x1 PUSH1 0x1 PUSH1 0xA0 SHL SUB PUSH32 0x0 DUP2 AND SWAP3 SWAP2 AND SWAP1 PUSH2 0x1863 JUMP JUMPDEST PUSH1 0x2 DUP2 ADD SLOAD PUSH1 0x3 DUP3 ADD SLOAD PUSH1 0x40 MLOAD SWAP1 DUP2 MSTORE PUSH1 0x1 PUSH1 0x1 PUSH1 0xA0 SHL SUB SWAP1 SWAP2 AND SWAP1 DUP4 SWAP1 PUSH32 0x9D8BECCC2804C8DF195CD5A6B895235D75657A7C6C49365F334AD4B9F784478E SWAP1 PUSH1 0x20 ADD PUSH1 0x40 MLOAD DUP1 SWAP2 SUB SWAP1 LOG3 POP PUSH2 0x17C9 PUSH1 0x1 PUSH1 0x0 SSTORE JUMP JUMPDEST POP JUMP JUMPDEST PUSH1 0x2 PUSH1 0x0 SLOAD SUB PUSH2 0x17EF JUMPI PUSH1 0x40 MLOAD PUSH4 0x3EE5AEB5 PUSH1 0xE0 SHL DUP2 MSTORE PUSH1 0x4 ADD PUSH1 0x40 MLOAD DUP1 SWAP2 SUB SWAP1 REVERT JUMPDEST PUSH1 0x2 PUSH1 0x0 SSTORE JUMP JUMPDEST PUSH1 0x40 MLOAD PUSH1 0x1 PUSH1 0x1 PUSH1 0xA0 SHL SUB DUP5 DUP2 AND PUSH1 0x24 DUP4 ADD MSTORE DUP4 DUP2 AND PUSH1 0x44 DUP4 ADD MSTORE PUSH1 0x64 DUP3 ADD DUP4 SWAP1 MSTORE PUSH2 0x185D SWAP2 DUP7 SWAP2 DUP3 AND SWAP1 PUSH4 0x23B872DD SWAP1 PUSH1 0x84 ADD JUMPDEST PUSH1 0x40 MLOAD PUSH1 0x20 DUP2 DUP4 SUB SUB DUP2 MSTORE SWAP1 PUSH1 0x40 MSTORE SWAP2 POP PUSH1 0xE0 SHL PUSH1 0x20 DUP3 ADD DUP1 MLOAD PUSH1 0x1 PUSH1 0x1 PUSH1 0xE0 SHL SUB DUP4 DUP2 DUP4 AND OR DUP4 MSTORE POP POP POP POP PUSH2 0x1899 JUMP JUMPDEST POP POP POP POP JUMP JUMPDEST PUSH1 0x40 MLOAD PUSH1 0x1 PUSH1 0x1 PUSH1 0xA0 SHL SUB DUP4 DUP2 AND PUSH1 0x24 DUP4 ADD MSTORE PUSH1 0x44 DUP3 ADD DUP4 SWAP1 MSTORE PUSH2 0x1894 SWAP2 DUP6 SWAP2 DUP3 AND SWAP1 PUSH4 0xA9059CBB SWAP1 PUSH1 0x64 ADD PUSH2 0x182B JUMP JUMPDEST POP POP POP JUMP JUMPDEST PUSH1 0x0 DUP1 PUSH1 0x20 PUSH1 0x0 DUP5 MLOAD PUSH1 0x20 DUP7 ADD PUSH1 0x0 DUP9 GAS CALL DUP1 PUSH2 0x18BC JUMPI PUSH1 0x40 MLOAD RETURNDATASIZE PUSH1 0x0 DUP3 RETURNDATACOPY RETURNDATASIZE DUP2 REVERT JUMPDEST POP POP PUSH1 0x0 MLOAD RETURNDATASIZE SWAP2 POP DUP2 ISZERO PUSH2 0x18D4 JUMPI DUP1 PUSH1 0x1 EQ ISZERO PUSH2 0x18E1 JUMP JUMPDEST PUSH1 0x1 PUSH1 0x1 PUSH1 0xA0 SHL SUB DUP5 AND EXTCODESIZE ISZERO JUMPDEST ISZERO PUSH2 0x185D JUMPI PUSH1 0x40 MLOAD PUSH4 0x5274AFE7 PUSH1 0xE0 SHL DUP2 MSTORE PUSH1 0x1 PUSH1 0x1 PUSH1 0xA0 SHL SUB DUP6 AND PUSH1 0x4 DUP3 ADD MSTORE PUSH1 0x24 ADD PUSH2 0x3E1 JUMP JUMPDEST PUSH1 0x40 MLOAD DUP1 PUSH2 0x100 ADD PUSH1 0x40 MSTORE DUP1 PUSH1 0x0 DUP2 MSTORE PUSH1 0x20 ADD PUSH1 0x0 DUP2 MSTORE PUSH1 0x20 ADD PUSH1 0x0 PUSH1 0x1 PUSH1 0x1 PUSH1 0xA0 SHL SUB AND DUP2 MSTORE PUSH1 0x20 ADD PUSH1 0x0 DUP2 MSTORE PUSH1 0x20 ADD PUSH1 0x60 DUP2 MSTORE PUSH1 0x20 ADD PUSH1 0x0 ISZERO ISZERO DUP2 MSTORE PUSH1 0x20 ADD PUSH1 0x0 ISZERO ISZERO DUP2 MSTORE PUSH1 0x20 ADD PUSH1 0x0 DUP2 MSTORE POP SWAP1 JUMP JUMPDEST PUSH1 0x0 DUP1 PUSH1 0x40 DUP4 DUP6 SUB SLT ISZERO PUSH2 0x196F JUMPI PUSH1 0x0 DUP1 REVERT JUMPDEST POP POP DUP1 CALLDATALOAD SWAP3 PUSH1 0x20 SWAP1 SWAP2 ADD CALLDATALOAD SWAP2 POP JUMP JUMPDEST PUSH4 0x4E487B71 PUSH1 0xE0 SHL PUSH1 0x0 MSTORE PUSH1 0x41 PUSH1 0x4 MSTORE PUSH1 0x24 PUSH1 0x0 REVERT JUMPDEST PUSH1 0x0 DUP3 PUSH1 0x1F DUP4 ADD SLT PUSH2 0x19A5 JUMPI PUSH1 0x0 DUP1 REVERT JUMPDEST DUP2 CALLDATALOAD PUSH8 0xFFFFFFFFFFFFFFFF DUP1 DUP3 GT ISZERO PUSH2 0x19C0 JUMPI PUSH2 0x19C0 PUSH2 0x197E JUMP JUMPDEST PUSH1 0x40 MLOAD PUSH1 0x1F DUP4 ADD PUSH1 0x1F NOT SWAP1 DUP2 AND PUSH1 0x3F ADD AND DUP2 ADD SWAP1 DUP3 DUP3 GT DUP2 DUP4 LT OR ISZERO PUSH2 0x19E8 JUMPI PUSH2 0x19E8 PUSH2 0x197E JUMP JUMPDEST DUP2 PUSH1 0x40 MSTORE DUP4 DUP2 MSTORE DUP7 PUSH1 0x20 DUP6 DUP9 ADD ADD GT ISZERO PUSH2 0x1A01 JUMPI PUSH1 0x0 DUP1 REVERT JUMPDEST DUP4 PUSH1 0x20 DUP8 ADD PUSH1 0x20 DUP4 ADD CALLDATACOPY PUSH1 0x0 PUSH1 0x20 DUP6 DUP4 ADD ADD MSTORE DUP1 SWAP5 POP POP POP POP POP SWAP3 SWAP2 POP POP JUMP JUMPDEST PUSH1 0x0 DUP1 PUSH1 0x0 PUSH1 0x60 DUP5 DUP7 SUB SLT ISZERO PUSH2 0x1A36 JUMPI PUSH1 0x0 DUP1 REVERT JUMPDEST DUP4 CALLDATALOAD SWAP3 POP PUSH1 0x20 DUP5 ADD CALLDATALOAD SWAP2 POP PUSH1 0x40 DUP5 ADD CALLDATALOAD PUSH8 0xFFFFFFFFFFFFFFFF DUP2 GT ISZERO PUSH2 0x1A5B JUMPI PUSH1 0x0 DUP1 REVERT JUMPDEST PUSH2 0x1A67 DUP7 DUP3 DUP8 ADD PUSH2 0x1994 JUMP JUMPDEST SWAP2 POP POP SWAP3 POP SWAP3 POP SWAP3 JUMP JUMPDEST DUP1 CALLDATALOAD PUSH1 0x1 PUSH1 0x1 PUSH1 0xA0 SHL SUB DUP2 AND DUP2 EQ PUSH2 0x1A88 JUMPI PUSH1 0x0 DUP1 REVERT JUMPDEST SWAP2 SWAP1 POP JUMP JUMPDEST PUSH1 0x0 DUP1 PUSH1 0x40 DUP4 DUP6 SUB SLT ISZERO PUSH2 0x1AA0 JUMPI PUSH1 0x0 DUP1 REVERT JUMPDEST PUSH2 0x1AA9 DUP4 PUSH2 0x1A71 JUMP JUMPDEST SWAP5 PUSH1 0x20 SWAP4 SWAP1 SWAP4 ADD CALLDATALOAD SWAP4 POP POP POP JUMP JUMPDEST PUSH1 0x0 DUP1 PUSH1 0x40 DUP4 DUP6 SUB SLT ISZERO PUSH2 0x1ACA JUMPI PUSH1 0x0 DUP1 REVERT JUMPDEST DUP3 CALLDATALOAD SWAP2 POP PUSH2 0x1ADA PUSH1 0x20 DUP5 ADD PUSH2 0x1A71 JUMP JUMPDEST SWAP1 POP SWAP3 POP SWAP3 SWAP1 POP JUMP JUMPDEST PUSH1 0x0 PUSH1 0x20 DUP3 DUP5 SUB SLT ISZERO PUSH2 0x1AF5 JUMPI PUSH1 0x0 DUP1 REVERT JUMPDEST PUSH2 0x1AFE DUP3 PUSH2 0x1A71 JUMP JUMPDEST SWAP4 SWAP3 POP POP POP JUMP JUMPDEST PUSH1 0x0 DUP2 MLOAD DUP1 DUP5 MSTORE PUSH1 0x0 JUMPDEST DUP2 DUP2 LT ISZERO PUSH2 0x1B2B JUMPI PUSH1 0x20 DUP2 DUP6 ADD DUP2 ADD MLOAD DUP7 DUP4 ADD DUP3 ADD MSTORE ADD PUSH2 0x1B0F JUMP JUMPDEST POP PUSH1 0x0 PUSH1 0x20 DUP3 DUP7 ADD ADD MSTORE PUSH1 0x20 PUSH1 0x1F NOT PUSH1 0x1F DUP4 ADD AND DUP6 ADD ADD SWAP2 POP POP SWAP3 SWAP2 POP POP JUMP JUMPDEST PUSH1 0x0 PUSH1 0x20 DUP1 DUP4 ADD DUP2 DUP5 MSTORE DUP1 DUP6 MLOAD DUP1 DUP4 MSTORE PUSH1 0x40 SWAP3 POP PUSH1 0x40 DUP7 ADD SWAP2 POP PUSH1 0x40 DUP2 PUSH1 0x5 SHL DUP8 ADD ADD DUP5 DUP9 ADD PUSH1 0x0 JUMPDEST DUP4 DUP2 LT ISZERO PUSH2 0x1C0F JUMPI DUP9 DUP4 SUB PUSH1 0x3F NOT ADD DUP6 MSTORE DUP2 MLOAD DUP1 MLOAD DUP5 MSTORE DUP8 DUP2 ADD MLOAD DUP9 DUP6 ADD MSTORE DUP7 DUP2 ADD MLOAD PUSH1 0x1 PUSH1 0x1 PUSH1 0xA0 SHL SUB AND DUP8 DUP6 ADD MSTORE PUSH1 0x60 DUP1 DUP3 ADD MLOAD SWAP1 DUP6 ADD MSTORE PUSH1 0x80 DUP1 DUP3 ADD MLOAD PUSH2 0x100 DUP3 DUP8 ADD DUP2 SWAP1 MSTORE SWAP2 SWAP1 PUSH2 0x1BCB DUP4 DUP9 ADD DUP3 PUSH2 0x1B05 JUMP JUMPDEST SWAP3 POP POP POP PUSH1 0xA0 DUP1 DUP4 ADD MLOAD ISZERO ISZERO DUP2 DUP8 ADD MSTORE POP PUSH1 0xC0 DUP1 DUP4 ADD MLOAD PUSH2 0x1BEF DUP3 DUP9 ADD DUP3 ISZERO ISZERO SWAP1 MSTORE JUMP JUMPDEST POP POP PUSH1 0xE0 SWAP2 DUP3 ADD MLOAD SWAP5 SWAP1 SWAP2 ADD SWAP4 SWAP1 SWAP4 MSTORE SWAP4 DUP7 ADD SWAP4 SWAP1 DUP7 ADD SWAP1 PUSH1 0x1 ADD PUSH2 0x1B74 JUMP JUMPDEST POP SWAP1 SWAP9 SWAP8 POP POP POP POP POP POP POP POP JUMP JUMPDEST PUSH1 0x0 PUSH1 0x20 DUP3 DUP5 SUB SLT ISZERO PUSH2 0x1C2F JUMPI PUSH1 0x0 DUP1 REVERT JUMPDEST POP CALLDATALOAD SWAP2 SWAP1 POP JUMP JUMPDEST PUSH1 0x0 PUSH1 0x20 DUP3 DUP5 SUB SLT ISZERO PUSH2 0x1C48 JUMPI PUSH1 0x0 DUP1 REVERT JUMPDEST DUP2 CALLDATALOAD PUSH8 0xFFFFFFFFFFFFFFFF DUP2 GT ISZERO PUSH2 0x1C5F JUMPI PUSH1 0x0 DUP1 REVERT JUMPDEST PUSH2 0x1C6B DUP5 DUP3 DUP6 ADD PUSH2 0x1994 JUMP JUMPDEST SWAP5 SWAP4 POP POP POP POP JUMP JUMPDEST PUSH1 0x0 PUSH2 0x100 DUP11 DUP4 MSTORE DUP10 PUSH1 0x20 DUP5 ADD MSTORE PUSH1 0x1 DUP1 PUSH1 0xA0 SHL SUB DUP10 AND PUSH1 0x40 DUP5 ADD MSTORE DUP8 PUSH1 0x60 DUP5 ADD MSTORE DUP1 PUSH1 0x80 DUP5 ADD MSTORE PUSH2 0x1CA7 DUP2 DUP5 ADD DUP9 PUSH2 0x1B05 JUMP JUMPDEST SWAP6 ISZERO ISZERO PUSH1 0xA0 DUP5 ADD MSTORE POP POP SWAP2 ISZERO ISZERO PUSH1 0xC0 DUP4 ADD MSTORE PUSH1 0xE0 SWAP1 SWAP2 ADD MSTORE SWAP6 SWAP5 POP POP POP POP POP JUMP JUMPDEST PUSH1 0x80 DUP2 MSTORE PUSH1 0x0 PUSH2 0x1CDB PUSH1 0x80 DUP4 ADD DUP8 PUSH2 0x1B05 JUMP JUMPDEST PUSH1 0x1 PUSH1 0x1 PUSH1 0xA0 SHL SUB SWAP6 SWAP1 SWAP6 AND PUSH1 0x20 DUP4 ADD MSTORE POP PUSH1 0x40 DUP2 ADD SWAP3 SWAP1 SWAP3 MSTORE ISZERO ISZERO PUSH1 0x60 SWAP1 SWAP2 ADD MSTORE SWAP2 SWAP1 POP JUMP JUMPDEST PUSH1 0xC0 DUP2 MSTORE PUSH1 0x0 PUSH2 0x1D15 PUSH1 0xC0 DUP4 ADD DUP10 PUSH2 0x1B05 JUMP JUMPDEST PUSH1 0x1 PUSH1 0x1 PUSH1 0xA0 SHL SUB SWAP8 SWAP1 SWAP8 AND PUSH1 0x20 DUP4 ADD MSTORE POP PUSH1 0x40 DUP2 ADD SWAP5 SWAP1 SWAP5 MSTORE SWAP2 ISZERO ISZERO PUSH1 0x60 DUP5 ADD MSTORE PUSH1 0x80 DUP4 ADD MSTORE PUSH1 0xA0 SWAP1 SWAP2 ADD MSTORE SWAP2 SWAP1 POP JUMP JUMPDEST PUSH4 0x4E487B71 PUSH1 0xE0 SHL PUSH1 0x0 MSTORE PUSH1 0x11 PUSH1 0x4 MSTORE PUSH1 0x24 PUSH1 0x0 REVERT JUMPDEST DUP1 DUP3 ADD DUP1 DUP3 GT ISZERO PUSH2 0x1D70 JUMPI PUSH2 0x1D70 PUSH2 0x1D47 JUMP JUMPDEST SWAP3 SWAP2 POP POP JUMP JUMPDEST PUSH1 0x0 PUSH1 0x1 DUP3 ADD PUSH2 0x1D88 JUMPI PUSH2 0x1D88 PUSH2 0x1D47 JUMP JUMPDEST POP PUSH1 0x1 ADD SWAP1 JUMP JUMPDEST PUSH1 0x1 DUP2 DUP2 SHR SWAP1 DUP3 AND DUP1 PUSH2 0x1DA3 JUMPI PUSH1 0x7F DUP3 AND SWAP2 POP JUMPDEST PUSH1 0x20 DUP3 LT DUP2 SUB PUSH2 0x1DC3 JUMPI PUSH4 0x4E487B71 PUSH1 0xE0 SHL PUSH1 0x0 MSTORE PUSH1 0x22 PUSH1 0x4 MSTORE PUSH1 0x24 PUSH1 0x0 REVERT JUMPDEST POP SWAP2 SWAP1 POP JUMP JUMPDEST PUSH1 0x1F DUP3 GT ISZERO PUSH2 0x1894 JUMPI PUSH1 0x0 DUP2 PUSH1 0x0 MSTORE PUSH1 0x20 PUSH1 0x0 KECCAK256 PUSH1 0x1F DUP6 ADD PUSH1 0x5 SHR DUP2 ADD PUSH1 0x20 DUP7 LT ISZERO PUSH2 0x1DF2 JUMPI POP DUP1 JUMPDEST PUSH1 0x1F DUP6 ADD PUSH1 0x5 SHR DUP3 ADD SWAP2 POP JUMPDEST DUP2 DUP2 LT ISZERO PUSH2 0x1E11 JUMPI DUP3 DUP2 SSTORE PUSH1 0x1 ADD PUSH2 0x1DFE JUMP JUMPDEST POP POP POP POP POP POP JUMP JUMPDEST DUP2 MLOAD PUSH8 0xFFFFFFFFFFFFFFFF DUP2 GT ISZERO PUSH2 0x1E33 JUMPI PUSH2 0x1E33 PUSH2 0x197E JUMP JUMPDEST PUSH2 0x1E47 DUP2 PUSH2 0x1E41 DUP5 SLOAD PUSH2 0x1D8F JUMP JUMPDEST DUP5 PUSH2 0x1DC9 JUMP JUMPDEST PUSH1 0x20 DUP1 PUSH1 0x1F DUP4 GT PUSH1 0x1 DUP2 EQ PUSH2 0x1E7C JUMPI PUSH1 0x0 DUP5 ISZERO PUSH2 0x1E64 JUMPI POP DUP6 DUP4 ADD MLOAD JUMPDEST PUSH1 0x0 NOT PUSH1 0x3 DUP7 SWAP1 SHL SHR NOT AND PUSH1 0x1 DUP6 SWAP1 SHL OR DUP6 SSTORE PUSH2 0x1E11 JUMP JUMPDEST PUSH1 0x0 DUP6 DUP2 MSTORE PUSH1 0x20 DUP2 KECCAK256 PUSH1 0x1F NOT DUP7 AND SWAP2 JUMPDEST DUP3 DUP2 LT ISZERO PUSH2 0x1EAB JUMPI DUP9 DUP7 ADD MLOAD DUP3 SSTORE SWAP5 DUP5 ADD SWAP5 PUSH1 0x1 SWAP1 SWAP2 ADD SWAP1 DUP5 ADD PUSH2 0x1E8C JUMP JUMPDEST POP DUP6 DUP3 LT ISZERO PUSH2 0x1EC9 JUMPI DUP8 DUP6 ADD MLOAD PUSH1 0x0 NOT PUSH1 0x3 DUP9 SWAP1 SHL PUSH1 0xF8 AND SHR NOT AND DUP2 SSTORE JUMPDEST POP POP POP POP POP PUSH1 0x1 SWAP1 DUP2 SHL ADD SWAP1 SSTORE POP JUMP JUMPDEST DUP3 DUP2 MSTORE PUSH1 0x40 PUSH1 0x20 DUP3 ADD MSTORE PUSH1 0x0 PUSH2 0x1C6B PUSH1 0x40 DUP4 ADD DUP5 PUSH2 0x1B05 JUMP JUMPDEST PUSH4 0x4E487B71 PUSH1 0xE0 SHL PUSH1 0x0 MSTORE PUSH1 0x32 PUSH1 0x4 MSTORE PUSH1 0x24 PUSH1 0x0 REVERT JUMPDEST PUSH1 0x40 DUP2 MSTORE PUSH1 0x0 PUSH2 0x1F1B PUSH1 0x40 DUP4 ADD DUP6 PUSH2 0x1B05 JUMP JUMPDEST SWAP1 POP PUSH1 0x1 DUP1 PUSH1 0xA0 SHL SUB DUP4 AND PUSH1 0x20 DUP4 ADD MSTORE SWAP4 SWAP3 POP POP POP JUMP JUMPDEST DUP2 DUP2 SUB DUP2 DUP2 GT ISZERO PUSH2 0x1D70 JUMPI PUSH2 0x1D70 PUSH2 0x1D47 JUMP INVALID LOG2 PUSH5 0x6970667358 0x22 SLT KECCAK256 DUP4 ADDRESS MCOPY MULMOD 0x4F 0x4C SWAP11 DUP10 SGT 0x2F 0xE4 0xF6 CREATE2 0xEF CALLER PUSH15 0xF458536059E22090DA1403595DDD DUP8 PUSH5 0x736F6C6343 STOP ADDMOD XOR STOP CALLER "
        },
        "methodIdentifiers": {
          "approveAid(uint256)": "cb0186d4",
          "donate(uint256,uint256)": "0cdd53f6",
          "donorContributions(uint256,address)": "3e2f2915",
          "getDonorCount(uint256)": "5943c705",
          "getPendingRequests(uint256)": "9cbdf593",
          "getStats()": "c59d4847",
          "getStudentRequests(address)": "49b279ad",
          "getUniversity(uint256)": "c99086d0",
          "getUniversityRequests(uint256)": "7c52df88",
          "registerUniversity(string)": "6faa93d1",
          "rejectAid(uint256)": "5386a4ae",
          "requestAid(uint256,uint256,string)": "147b2b06",
          "requestCount()": "5badbe4c",
          "requests(uint256)": "81d12c58",
          "studentRequests(address,uint256)": "2ce416f5",
          "totalDisbursed()": "bf95c78d",
          "totalDonated()": "00b37044",
          "universities(uint256)": "9c38f65f",
          "universityCount()": "418374f3",
          "universityDonors(uint256,uint256)": "4e8eb4a6",
          "universityRequests(uint256,uint256)": "58dc71a3",
          "usdc()": "3e413bee"
        }
      }
    }
  }
}